{"abi":[{"type":"function","name":"verifyProof","inputs":[{"name":"proof","type":"uint256[8]","internalType":"uint256[8]"},{"name":"publicInputs","type":"uint256[5]","internalType":"uint256[5]"}],"outputs":[{"name":"","type":"bool","internalType":"bool"}],"stateMutability":"view"},{"type":"error","name":"InvalidPublicInput","inputs":[]},{"type":"error","name":"PairingFailed","inputs":[]}],"bytecode":{"object":"0x6080604052348015600e575f5ffd5b50610e038061001c5f395ff3fe608060405234801561000f575f5ffd5b5060043610610029575f3560e01c80632a07d99a1461002d575b5f5ffd5b61004760048036038101906100429190610cc4565b61005d565b6040516100549190610d1e565b60405180910390f35b5f5f5f90505b60058110156100e9577f30644e72e131a029b85045b68181585d2833e84879b9709143e1f593f00000018382600581106100a05761009f610d37565b5b6020020135106100dc576040517f7458ca2e00000000000000000000000000000000000000000000000000000000815260040160405180910390fd5b8080600101915050610063565b506100f2610bcf565b7f1e194bea53f62302afffffbd57fa841d8547b1d6ec63ffa4d92fb5b5ae7e1b35815f6002811061012657610125610d37565b5b6020020181815250507f223a6a7dbcf7d785c67f2c87468b54b3e30d6686fcaf078f50fbd7c0f8d0fb3a8160016002811061016457610163610d37565b5b6020020181815250506101eb816101e660405180604001604052807f0921e6d9490d813c4e4a75cbae88a78c167101beb80405a1bf67669f72768e4a81526020017f1d5579f01788c2fd54db704448ad41ed8f5b25179bbdb54ee49e1ef2cd5569ed815250865f600581106101dc576101db610d37565b5b6020020135610a18565b610acd565b905061026c8161026760405180604001604052807f2d7c7dd01c5ccdb7c4cd1a9248fe992182e4a480720a5209c5610055cbc0fa4681526020017f045e2565dcc9ee9bc5a25eb392364eb0a539ccc5c8aed0f9aa58b662e2d5d9cf8152508660016005811061025d5761025c610d37565b5b6020020135610a18565b610acd565b90506102ed816102e860405180604001604052807f0e6ed38bbe6ed1cfc2b2fb431255c5fbcbc6ac487d2ef7cbc5584e60944f1cca81526020017f0ed2b6d559e83f7e2eb9ef4b9564363d6ebb18ffce122feb1ef06b44be087f5f815250866002600581106102de576102dd610d37565b5b6020020135610a18565b610acd565b905061036e8161036960405180604001604052807f0224b7ad1d70325fe66e40ca1928e3d7e684aac431c4f74cb8526da9ad3f831381526020017f2e271590d65ad04daaaaf81c0d0aed78279441f3cdc6dc64d246440cceadaef88152508660036005811061035f5761035e610d37565b5b6020020135610a18565b610acd565b90506103ef816103ea60405180604001604052807f2e0d27ef02fd4ef27b84e1eda7e4f2d149a52d7b5e3c76e08141e4b8abc0084f81526020017f0e91cfc371f42099db145027b880c03ca948a821d809be51053ecf30aa255f2e815250866004600581106103e0576103df610d37565b5b6020020135610a18565b610acd565b90506103f9610bf1565b845f6008811061040c5761040b610d37565b5b6020020135815f6018811061042457610423610d37565b5b6020020181815250508460016008811061044157610440610d37565b5b60200201357f30644e72e131a029b85045b68181585d97816a916871ca8d3c208c16d87cfd476104719190610d9a565b8160016018811061048557610484610d37565b5b602002018181525050846002600881106104a2576104a1610d37565b5b6020020135816002601881106104bb576104ba610d37565b5b602002018181525050846003600881106104d8576104d7610d37565b5b6020020135816003601881106104f1576104f0610d37565b5b6020020181815250508460046008811061050e5761050d610d37565b5b60200201358160046018811061052757610526610d37565b5b6020020181815250508460056008811061054457610543610d37565b5b60200201358160056018811061055d5761055c610d37565b5b6020020181815250507f1d0f717d282bff68f12afa64732ec8dcf5028c0074187142a519cb7e4167a7288160066018811061059b5761059a610d37565b5b6020020181815250507f1edd9714fc371c2dfb53d11da63a77d9809d1849c58f8d585195bee0748d6ff4816007601881106105d9576105d8610d37565b5b6020020181815250507f1f4b4fc602990b16fdef1e6f11faec43b747e35835ddacfac367efce8d817f4f8160086018811061061757610616610d37565b5b6020020181815250507f2ebe85655a282510382c18df45093adfa22da79efb0d0f6c598850add26e3a558160096018811061065557610654610d37565b5b6020020181815250507f02fe9bbd9b25d34d05ad3a975bca284c165c69e6bc4a20d040d115ecca2d970d81600a6018811061069357610692610d37565b5b6020020181815250507f2bb3239bb79524afb9007af399394e7b8c2a34e7d3ac2829e0c5bc0edc0dce9581600b601881106106d1576106d0610d37565b5b602002018181525050815f600281106106ed576106ec610d37565b5b602002015181600c6018811061070657610705610d37565b5b6020020181815250508160016002811061072357610722610d37565b5b602002015181600d6018811061073c5761073b610d37565b5b6020020181815250507f1bb56282d3b7970dc05f4c347df23245645264e130b1494fab9c4cda146f746581600e6018811061077a57610779610d37565b5b6020020181815250507f1b4880b6ab03f2ffd95a050091ca1264b3465581b6f86b45695dd2b88cf879e481600f601881106107b8576107b7610d37565b5b6020020181815250507f085dcc4c489c5b878d78063ed428569eba84c51926f39ae2191acbe1a3394c55816010601881106107f6576107f5610d37565b5b6020020181815250507f12a80f7201a92eede33af748f0bae5c3d1afdca32231de199856a1d6ad2447b98160116018811061083457610833610d37565b5b6020020181815250508460066008811061085157610850610d37565b5b60200201358160126018811061086a57610869610d37565b5b6020020181815250508460076008811061088757610886610d37565b5b6020020135816013601881106108a05761089f610d37565b5b6020020181815250507f27cdc080f55428d0ab95d0289e02cab33f7cf2e6e59def37a03ec101ff1aaacb816014601881106108de576108dd610d37565b5b6020020181815250507e4a4e69132030d832d6f2c092e651497943baccd5e304ef5341103ffc895aed8160156018811061091b5761091a610d37565b5b6020020181815250507f2c4b09d5f5f5583e5f3ccb49862e4e7e01f7054a971a1d2c8cb9d65b063de5238160166018811061095957610958610d37565b5b6020020181815250507f1fea5cad01a9e648f46a8540a22b01ad12d099814c8811a5cb923c8c99c50b2b8160176018811061099757610996610d37565b5b6020020181815250506109a8610c14565b5f6020826103008560086107d05a03fa9050806109f1576040517f4df45e2f00000000000000000000000000000000000000000000000000000000815260040160405180910390fd5b6001825f60018110610a0657610a05610d37565b5b60200201511494505050505092915050565b610a20610bcf565b610a28610c36565b835f60028110610a3b57610a3a610d37565b5b6020020151815f60038110610a5357610a52610d37565b5b60200201818152505083600160028110610a7057610a6f610d37565b5b602002015181600160038110610a8957610a88610d37565b5b6020020181815250508281600260038110610aa757610aa6610d37565b5b60200201818152505060408260608360076107d05a03fa610ac6575f5ffd5b5092915050565b610ad5610bcf565b610add610c58565b835f60028110610af057610aef610d37565b5b6020020151815f60048110610b0857610b07610d37565b5b60200201818152505083600160028110610b2557610b24610d37565b5b602002015181600160048110610b3e57610b3d610d37565b5b602002018181525050825f60028110610b5a57610b59610d37565b5b602002015181600260048110610b7357610b72610d37565b5b60200201818152505082600160028110610b9057610b8f610d37565b5b602002015181600360048110610ba957610ba8610d37565b5b60200201818152505060408260808360066107d05a03fa610bc8575f5ffd5b5092915050565b6040518060400160405280600290602082028036833780820191505090505090565b604051806103000160405280601890602082028036833780820191505090505090565b6040518060200160405280600190602082028036833780820191505090505090565b6040518060600160405280600390602082028036833780820191505090505090565b6040518060800160405280600490602082028036833780820191505090505090565b5f5ffd5b5f5ffd5b5f81905082602060080282011115610c9d57610c9c610c7e565b5b92915050565b5f81905082602060050282011115610cbe57610cbd610c7e565b5b92915050565b5f5f6101a08385031215610cdb57610cda610c7a565b5b5f610ce885828601610c82565b925050610100610cfa85828601610ca3565b9150509250929050565b5f8115159050919050565b610d1881610d04565b82525050565b5f602082019050610d315f830184610d0f565b92915050565b7f4e487b71000000000000000000000000000000000000000000000000000000005f52603260045260245ffd5b5f819050919050565b7f4e487b71000000000000000000000000000000000000000000000000000000005f52601160045260245ffd5b5f610da482610d64565b9150610daf83610d64565b9250828203905081811115610dc757610dc6610d6d565b5b9291505056fea2646970667358221220d2326f6bcd1850057cf25a733e2bf93eb19d43e62328345099b914494fa2e88b64736f6c63430008210033","linkReferences":{}},"methodIdentifiers":{"verifyProof(uint256[8],uint256[5])":"2a07d99a"},"id":17}