{"abi":[{"type":"function","name":"hasPQCBinding","inputs":[{"name":"commitment","type":"bytes32","internalType":"bytes32"}],"outputs":[{"name":"","type":"bool","internalType":"bool"}],"stateMutability":"view"},{"type":"function","name":"pqcBindings","inputs":[{"name":"","type":"bytes32","internalType":"bytes32"}],"outputs":[{"name":"","type":"bytes32","internalType":"bytes32"}],"stateMutability":"view"},{"type":"function","name":"registerPQCBinding","inputs":[{"name":"classicalCommitment","type":"bytes32","internalType":"bytes32"},{"name":"pqcBinding","type":"bytes32","internalType":"bytes32"}],"outputs":[],"stateMutability":"nonpayable"}],"bytecode":{"object":"0x6080604052348015600e575f5ffd5b506103078061001c5f395ff3fe608060405234801561000f575f5ffd5b506004361061003f575f3560e01c80631855d247146100435780633adf6b3114610073578063ad8232e81461008f575b5f5ffd5b61005d60048036038101906100589190610195565b6100bf565b60405161006a91906101da565b60405180910390f35b61008d600480360381019061008891906101f3565b6100dd565b005b6100a960048036038101906100a49190610195565b61014a565b6040516100b69190610240565b60405180910390f35b5f5f5f1b5f5f8481526020019081526020015f205414159050919050565b5f5f1b5f5f8481526020019081526020015f205414610131576040517f08c379a0000000000000000000000000000000000000000000000000000000008152600401610128906102b3565b60405180910390fd5b805f5f8481526020019081526020015f20819055505050565b5f602052805f5260405f205f915090505481565b5f5ffd5b5f819050919050565b61017481610162565b811461017e575f5ffd5b50565b5f8135905061018f8161016b565b92915050565b5f602082840312156101aa576101a961015e565b5b5f6101b784828501610181565b91505092915050565b5f8115159050919050565b6101d4816101c0565b82525050565b5f6020820190506101ed5f8301846101cb565b92915050565b5f5f604083850312156102095761020861015e565b5b5f61021685828601610181565b925050602061022785828601610181565b9150509250929050565b61023a81610162565b82525050565b5f6020820190506102535f830184610231565b92915050565b5f82825260208201905092915050565b7f416c7265616479207265676973746572656400000000000000000000000000005f82015250565b5f61029d601283610259565b91506102a882610269565b602082019050919050565b5f6020820190508181035f8301526102ca81610291565b905091905056fea2646970667358221220e40cd9180c32ec15fc8543f5b264a210a4198a8c991f24e210a2dc5e0efff27e64736f6c63430008210033","linkReferences":{}},"methodIdentifiers":{"hasPQCBinding(bytes32)":"1855d247","pqcBindings(bytes32)":"ad8232e8","registerPQCBinding(bytes32,bytes32)":"3adf6b31"},"id":20}