{"abi":[{"type":"function","name":"MAX_DEPTH","inputs":[],"outputs":[{"name":"","type":"uint8","internalType":"uint8"}],"stateMutability":"view"},{"type":"function","name":"MIN_DEPTH","inputs":[],"outputs":[{"name":"","type":"uint8","internalType":"uint8"}],"stateMutability":"view"},{"type":"function","name":"isNullifierUsed","inputs":[{"name":"nullifier","type":"bytes32","internalType":"bytes32"}],"outputs":[{"name":"","type":"bool","internalType":"bool"}],"stateMutability":"view"},{"type":"function","name":"maxMembers","inputs":[],"outputs":[{"name":"","type":"uint256","internalType":"uint256"}],"stateMutability":"pure"},{"type":"function","name":"nullifierUsed","inputs":[{"name":"","type":"bytes32","internalType":"bytes32"}],"outputs":[{"name":"","type":"bool","internalType":"bool"}],"stateMutability":"view"},{"type":"function","name":"verifyProof","inputs":[{"name":"proof","type":"bytes","internalType":"bytes"},{"name":"merkleRoot","type":"bytes32","internalType":"bytes32"},{"name":"nullifierHash","type":"bytes32","internalType":"bytes32"},{"name":"signalHash","type":"bytes32","internalType":"bytes32"},{"name":"externalNullifier","type":"bytes32","internalType":"bytes32"},{"name":"treeDepth","type":"uint8","internalType":"uint8"}],"outputs":[],"stateMutability":"nonpayable"},{"type":"event","name":"ProofVerified","inputs":[{"name":"merkleRoot","type":"bytes32","indexed":true,"internalType":"bytes32"},{"name":"nullifierHash","type":"bytes32","indexed":true,"internalType":"bytes32"},{"name":"signalHash","type":"bytes32","indexed":false,"internalType":"bytes32"},{"name":"treeDepth","type":"uint8","indexed":false,"internalType":"uint8"}],"anonymous":false},{"type":"error","name":"InvalidProof","inputs":[]},{"type":"error","name":"NullifierAlreadyUsed","inputs":[{"name":"nullifier","type":"bytes32","internalType":"bytes32"}]},{"type":"error","name":"UnsupportedTreeDepth","inputs":[{"name":"depth","type":"uint8","internalType":"uint8"}]}],"bytecode":{"object":"0x6080604052348015600e575f5ffd5b5061065d8061001c5f395ff3fe608060405234801561000f575f5ffd5b5060043610610060575f3560e01c806322dc7b4c146100645780637ecf686d146100945780638d2a05b2146100c4578063a27154ba146100e0578063bf4386a0146100fe578063c8e465ab1461011c575b5f5ffd5b61007e600480360381019061007991906103b3565b61013a565b60405161008b91906103f8565b60405180910390f35b6100ae60048036038101906100a991906103b3565b61015f565b6040516100bb91906103f8565b60405180910390f35b6100de60048036038101906100d991906104a8565b61017b565b005b6100e86102ed565b6040516100f59190610561565b60405180910390f35b6101066102f2565b6040516101139190610592565b60405180910390f35b610124610300565b6040516101319190610561565b60405180910390f35b5f5f5f8381526020019081526020015f205f9054906101000a900460ff169050919050565b5f602052805f5260405f205f915054906101000a900460ff1681565b601060ff168160ff1610806101965750603260ff168160ff16115b156101d857806040517f8833b8c00000000000000000000000000000000000000000000000000000000081526004016101cf9190610561565b60405180910390fd5b5f5f8581526020019081526020015f205f9054906101000a900460ff161561023757836040517fa483dd0400000000000000000000000000000000000000000000000000000000815260040161022e91906105ba565b60405180910390fd5b5f61024788888888888888610305565b905080610280576040517f09bde33900000000000000000000000000000000000000000000000000000000815260040160405180910390fd5b60015f5f8781526020019081526020015f205f6101000a81548160ff02191690831515021790555084867f040538e69c9f4616c17d8474a5165cfe692692a070bc328c8bd25c8f14f69fff86856040516102db9291906105d3565b60405180910390a35050505050505050565b603281565b5f6604000000000000905090565b601081565b5f605488889050101561031a575f905061036d565b8160ff168888601b818110610332576103316105fa565b5b9050013560f81c60f81b60f81c60ff161461034f575f905061036d565b5f601c8901359050868114610367575f91505061036d565b60019150505b979650505050505050565b5f5ffd5b5f5ffd5b5f819050919050565b61039281610380565b811461039c575f5ffd5b50565b5f813590506103ad81610389565b92915050565b5f602082840312156103c8576103c7610378565b5b5f6103d58482850161039f565b91505092915050565b5f8115159050919050565b6103f2816103de565b82525050565b5f60208201905061040b5f8301846103e9565b92915050565b5f5ffd5b5f5ffd5b5f5ffd5b5f5f83601f84011261043257610431610411565b5b8235905067ffffffffffffffff81111561044f5761044e610415565b5b60208301915083600182028301111561046b5761046a610419565b5b9250929050565b5f60ff82169050919050565b61048781610472565b8114610491575f5ffd5b50565b5f813590506104a28161047e565b92915050565b5f5f5f5f5f5f5f60c0888a0312156104c3576104c2610378565b5b5f88013567ffffffffffffffff8111156104e0576104df61037c565b5b6104ec8a828b0161041d565b975097505060206104ff8a828b0161039f565b95505060406105108a828b0161039f565b94505060606105218a828b0161039f565b93505060806105328a828b0161039f565b92505060a06105438a828b01610494565b91505092959891949750929550565b61055b81610472565b82525050565b5f6020820190506105745f830184610552565b92915050565b5f819050919050565b61058c8161057a565b82525050565b5f6020820190506105a55f830184610583565b92915050565b6105b481610380565b82525050565b5f6020820190506105cd5f8301846105ab565b92915050565b5f6040820190506105e65f8301856105ab565b6105f36020830184610552565b9392505050565b7f4e487b71000000000000000000000000000000000000000000000000000000005f52603260045260245ffdfea26469706673582212200e171a38b99f0f4e478336dfd4753a95060c70c55ac757ae52b38894035329dd64736f6c63430008210033","linkReferences":{}},"methodIdentifiers":{"MAX_DEPTH()":"a27154ba","MIN_DEPTH()":"c8e465ab","isNullifierUsed(bytes32)":"22dc7b4c","maxMembers()":"bf4386a0","nullifierUsed(bytes32)":"7ecf686d","verifyProof(bytes,bytes32,bytes32,bytes32,bytes32,uint8)":"8d2a05b2"},"id":20}