{"abi":[{"type":"constructor","inputs":[{"name":"_verifier","type":"address","internalType":"address"},{"name":"admin","type":"address","internalType":"address"}],"stateMutability":"nonpayable"},{"type":"function","name":"DEFAULT_ADMIN_ROLE","inputs":[],"outputs":[{"name":"","type":"bytes32","internalType":"bytes32"}],"stateMutability":"view"},{"type":"function","name":"MAX_DEPTH","inputs":[],"outputs":[{"name":"","type":"uint8","internalType":"uint8"}],"stateMutability":"view"},{"type":"function","name":"MIN_DEPTH","inputs":[],"outputs":[{"name":"","type":"uint8","internalType":"uint8"}],"stateMutability":"view"},{"type":"function","name":"PAUSER_ROLE","inputs":[],"outputs":[{"name":"","type":"bytes32","internalType":"bytes32"}],"stateMutability":"view"},{"type":"function","name":"UPGRADER_ROLE","inputs":[],"outputs":[{"name":"","type":"bytes32","internalType":"bytes32"}],"stateMutability":"view"},{"type":"function","name":"VERIFIER_UPDATE_DELAY","inputs":[],"outputs":[{"name":"","type":"uint256","internalType":"uint256"}],"stateMutability":"view"},{"type":"function","name":"getRoleAdmin","inputs":[{"name":"role","type":"bytes32","internalType":"bytes32"}],"outputs":[{"name":"","type":"bytes32","internalType":"bytes32"}],"stateMutability":"view"},{"type":"function","name":"grantRole","inputs":[{"name":"role","type":"bytes32","internalType":"bytes32"},{"name":"account","type":"address","internalType":"address"}],"outputs":[],"stateMutability":"nonpayable"},{"type":"function","name":"groth16Verifier","inputs":[],"outputs":[{"name":"","type":"address","internalType":"contract Groth16Verifier"}],"stateMutability":"view"},{"type":"function","name":"hasRole","inputs":[{"name":"role","type":"bytes32","internalType":"bytes32"},{"name":"account","type":"address","internalType":"address"}],"outputs":[{"name":"","type":"bool","internalType":"bool"}],"stateMutability":"view"},{"type":"function","name":"isNullifierUsed","inputs":[{"name":"nullifier","type":"bytes32","internalType":"bytes32"}],"outputs":[{"name":"","type":"bool","internalType":"bool"}],"stateMutability":"view"},{"type":"function","name":"lastVerifierUpdate","inputs":[],"outputs":[{"name":"","type":"uint256","internalType":"uint256"}],"stateMutability":"view"},{"type":"function","name":"maxMembers","inputs":[],"outputs":[{"name":"","type":"uint256","internalType":"uint256"}],"stateMutability":"pure"},{"type":"function","name":"nullifierUsed","inputs":[{"name":"","type":"bytes32","internalType":"bytes32"}],"outputs":[{"name":"","type":"bool","internalType":"bool"}],"stateMutability":"view"},{"type":"function","name":"pause","inputs":[],"outputs":[],"stateMutability":"nonpayable"},{"type":"function","name":"paused","inputs":[],"outputs":[{"name":"","type":"bool","internalType":"bool"}],"stateMutability":"view"},{"type":"function","name":"renounceRole","inputs":[{"name":"role","type":"bytes32","internalType":"bytes32"},{"name":"callerConfirmation","type":"address","internalType":"address"}],"outputs":[],"stateMutability":"nonpayable"},{"type":"function","name":"revokeRole","inputs":[{"name":"role","type":"bytes32","internalType":"bytes32"},{"name":"account","type":"address","internalType":"address"}],"outputs":[],"stateMutability":"nonpayable"},{"type":"function","name":"supportsInterface","inputs":[{"name":"interfaceId","type":"bytes4","internalType":"bytes4"}],"outputs":[{"name":"","type":"bool","internalType":"bool"}],"stateMutability":"view"},{"type":"function","name":"unpause","inputs":[],"outputs":[],"stateMutability":"nonpayable"},{"type":"function","name":"updateVerifier","inputs":[{"name":"newVerifier","type":"address","internalType":"address"}],"outputs":[],"stateMutability":"nonpayable"},{"type":"function","name":"verifyProof","inputs":[{"name":"proof","type":"bytes","internalType":"bytes"},{"name":"merkleRoot","type":"bytes32","internalType":"bytes32"},{"name":"nullifierHash","type":"bytes32","internalType":"bytes32"},{"name":"signalHash","type":"bytes32","internalType":"bytes32"},{"name":"externalNullifier","type":"bytes32","internalType":"bytes32"},{"name":"treeDepth","type":"uint8","internalType":"uint8"}],"outputs":[],"stateMutability":"nonpayable"},{"type":"event","name":"Paused","inputs":[{"name":"account","type":"address","indexed":false,"internalType":"address"}],"anonymous":false},{"type":"event","name":"ProofVerified","inputs":[{"name":"merkleRoot","type":"bytes32","indexed":true,"internalType":"bytes32"},{"name":"nullifierHash","type":"bytes32","indexed":true,"internalType":"bytes32"},{"name":"signalHash","type":"bytes32","indexed":false,"internalType":"bytes32"},{"name":"treeDepth","type":"uint8","indexed":false,"internalType":"uint8"}],"anonymous":false},{"type":"event","name":"RoleAdminChanged","inputs":[{"name":"role","type":"bytes32","indexed":true,"internalType":"bytes32"},{"name":"previousAdminRole","type":"bytes32","indexed":true,"internalType":"bytes32"},{"name":"newAdminRole","type":"bytes32","indexed":true,"internalType":"bytes32"}],"anonymous":false},{"type":"event","name":"RoleGranted","inputs":[{"name":"role","type":"bytes32","indexed":true,"internalType":"bytes32"},{"name":"account","type":"address","indexed":true,"internalType":"address"},{"name":"sender","type":"address","indexed":true,"internalType":"address"}],"anonymous":false},{"type":"event","name":"RoleRevoked","inputs":[{"name":"role","type":"bytes32","indexed":true,"internalType":"bytes32"},{"name":"account","type":"address","indexed":true,"internalType":"address"},{"name":"sender","type":"address","indexed":true,"internalType":"address"}],"anonymous":false},{"type":"event","name":"Unpaused","inputs":[{"name":"account","type":"address","indexed":false,"internalType":"address"}],"anonymous":false},{"type":"event","name":"VerifierUpdated","inputs":[{"name":"oldVerifier","type":"address","indexed":true,"internalType":"address"},{"name":"newVerifier","type":"address","indexed":true,"internalType":"address"}],"anonymous":false},{"type":"error","name":"AccessControlBadConfirmation","inputs":[]},{"type":"error","name":"AccessControlUnauthorizedAccount","inputs":[{"name":"account","type":"address","internalType":"address"},{"name":"neededRole","type":"bytes32","internalType":"bytes32"}]},{"type":"error","name":"DepthMismatch","inputs":[{"name":"proofDepth","type":"uint8","internalType":"uint8"},{"name":"expectedDepth","type":"uint8","internalType":"uint8"}]},{"type":"error","name":"EnforcedPause","inputs":[]},{"type":"error","name":"ExpectedPause","inputs":[]},{"type":"error","name":"InvalidProof","inputs":[]},{"type":"error","name":"NullifierAlreadyUsed","inputs":[{"name":"nullifier","type":"bytes32","internalType":"bytes32"}]},{"type":"error","name":"ProofTooShort","inputs":[{"name":"length","type":"uint256","internalType":"uint256"}]},{"type":"error","name":"ReentrancyGuardReentrantCall","inputs":[]},{"type":"error","name":"RootMismatch","inputs":[]},{"type":"error","name":"TimelockNotExpired","inputs":[{"name":"earliest","type":"uint256","internalType":"uint256"},{"name":"current","type":"uint256","internalType":"uint256"}]},{"type":"error","name":"UnsupportedTreeDepth","inputs":[{"name":"depth","type":"uint8","internalType":"uint8"}]},{"type":"error","name":"ZeroAddress","inputs":[]}],"bytecode":{"object":"0x608060405234801561000f575f5ffd5b50604051610f2c380380610f2c83398101604081905261002e916101d9565b60015f819055805460ff191690556001600160a01b0382166100635760405163d92e233d60e01b815260040160405180910390fd5b6001600160a01b03811661008a5760405163d92e233d60e01b815260040160405180910390fd5b600380546001600160a01b0319166001600160a01b038416179055426005556100b35f82610111565b506100de7f65d7a28e3265b37a6474929f336521b332c1681b933f6cb9f3376673440d862a82610111565b506101097f189ab7a9244df0848122154315af71fe140f3db0fe014031783b0946b8c9d2e382610111565b50505061020a565b5f8281526002602090815260408083206001600160a01b038516845290915281205460ff166101b5575f8381526002602090815260408083206001600160a01b03861684529091529020805460ff1916600117905561016d3390565b6001600160a01b0316826001600160a01b0316847f2f8788117e7eff1d82e926ec794901d17c78024a50270940304540a733656f0d60405160405180910390a45060016101b8565b505f5b92915050565b80516001600160a01b03811681146101d4575f5ffd5b919050565b5f5f604083850312156101ea575f5ffd5b6101f3836101be565b9150610201602084016101be565b90509250929050565b610d15806102175f395ff3fe608060405234801561000f575f5ffd5b506004361061013d575f3560e01c80638d2a05b2116100b4578063bf4386a011610079578063bf4386a0146102ae578063c8e465ab146102bb578063d547741f146102c3578063e5fa92ee146102d6578063e63ab1e9146102e0578063f72c0d8b14610307575f5ffd5b80638d2a05b21461025457806391d148541461026757806397fc007c1461027a578063a217fddf1461028d578063a27154ba14610294575f5ffd5b80632f2ff15d116101055780632f2ff15d146101ef57806336568abe146102045780633f4ba83a146102175780635c975abb1461021f5780637ecf686d1461022a5780638456cb591461024c575f5ffd5b806301ffc9a714610141578063190d0a101461016957806319c813be1461018057806322dc7b4c146101ab578063248a9ca3146101cd575b5f5ffd5b61015461014f366004610ae2565b61032e565b60405190151581526020015b60405180910390f35b61017260055481565b604051908152602001610160565b600354610193906001600160a01b031681565b6040516001600160a01b039091168152602001610160565b6101546101b9366004610b10565b5f9081526004602052604090205460ff1690565b6101726101db366004610b10565b5f9081526002602052604090206001015490565b6102026101fd366004610b42565b610364565b005b610202610212366004610b42565b61038e565b6102026103c6565b60015460ff16610154565b610154610238366004610b10565b60046020525f908152604090205460ff1681565b6102026103fb565b610202610262366004610b7c565b61042d565b610154610275366004610b42565b610551565b610202610288366004610c1c565b61057b565b6101725f81565b61029c603281565b60405160ff9091168152602001610160565b6604000000000000610172565b61029c601081565b6102026102d1366004610b42565b610661565b6101726202a30081565b6101727f65d7a28e3265b37a6474929f336521b332c1681b933f6cb9f3376673440d862a81565b6101727f189ab7a9244df0848122154315af71fe140f3db0fe014031783b0946b8c9d2e381565b5f6001600160e01b03198216637965db0b60e01b148061035e57506301ffc9a760e01b6001600160e01b03198316145b92915050565b5f8281526002602052604090206001015461037e81610685565b610388838361068f565b50505050565b6001600160a01b03811633146103b75760405163334bd91960e11b815260040160405180910390fd5b6103c18282610720565b505050565b7f65d7a28e3265b37a6474929f336521b332c1681b933f6cb9f3376673440d862a6103f081610685565b6103f861078b565b50565b7f65d7a28e3265b37a6474929f336521b332c1681b933f6cb9f3376673440d862a61042581610685565b6103f86107dd565b610435610818565b61043d610840565b601060ff821610806104525750603260ff8216115b1561047a57604051630220cee360e61b815260ff821660048201526024015b60405180910390fd5b5f8481526004602052604090205460ff16156104ac57604051632920f74160e21b815260048101859052602401610471565b5f6104bc88888888888888610866565b9050806104dc576040516309bde33960e01b815260040160405180910390fd5b5f8581526004602052604090819020805460ff1916600117905551859087907f040538e69c9f4616c17d8474a5165cfe692692a070bc328c8bd25c8f14f69fff90610536908890879091825260ff16602082015260400190565b60405180910390a35061054860015f55565b50505050505050565b5f9182526002602090815260408084206001600160a01b0393909316845291905290205460ff1690565b7f189ab7a9244df0848122154315af71fe140f3db0fe014031783b0946b8c9d2e36105a581610685565b6001600160a01b0382166105cc5760405163d92e233d60e01b815260040160405180910390fd5b5f6202a3006005546105de9190610c35565b90508042101561060a5760405163126b74dd60e11b815260048101829052426024820152604401610471565b600380546001600160a01b038581166001600160a01b031983168117909355426005556040519116919082907f0243549a92b2412f7a3caf7a2e56d65b8821b91345363faa5f57195384065fcc905f90a350505050565b5f8281526002602052604090206001015461067b81610685565b6103888383610720565b6103f88133610a63565b5f61069a8383610551565b610719575f8381526002602090815260408083206001600160a01b03861684529091529020805460ff191660011790556106d13390565b6001600160a01b0316826001600160a01b0316847f2f8788117e7eff1d82e926ec794901d17c78024a50270940304540a733656f0d60405160405180910390a450600161035e565b505f61035e565b5f61072b8383610551565b15610719575f8381526002602090815260408083206001600160a01b0386168085529252808320805460ff1916905551339286917ff6391f5c32d9c69d2a47ea670b442974b53935d1edc7fd64eb21e047a839171b9190a450600161035e565b610793610aa0565b6001805460ff191690557f5db9ee0a495bf2e6ff9c91a7834c1ba4fdd244a5e8aa4e537bd38aeae4b073aa335b6040516001600160a01b03909116815260200160405180910390a1565b6107e5610840565b6001805460ff1916811790557f62e78cea01bee320cd4e420270b5ea74000d11b0c9f74754ebdbfc544b05a258336107c0565b60025f540361083a57604051633ee5aeb560e01b815260040160405180910390fd5b60025f55565b60015460ff16156108645760405163d93c066560e01b815260040160405180910390fd5b565b5f61015487101561088d5760405163422e17ef60e01b815260048101889052602401610471565b873564ffffffffff1981167f5a45524f5f455850414e53494f4e5f53454d4150484f52455f56330000000000146108c7575f915050610a58565b5f8989601b8181106108db576108db610c54565b919091013560f81c91505060ff8416811461091657604051637e0f698560e01b815260ff808316600483015285166024820152604401610471565b601c8a013588811461093b57604051635ade045560e01b815260040160405180910390fd5b610943610ac3565b5f5b600881101561096557602081028d81016054013590830152600101610945565b506040805160208082018d90528183018c9052606082018b9052608082018a905260f889901b6001600160f81b03191660a08301528251608181840301815260a190920190925280519101205f906109de907f30644e72e131a029b85045b68181585d2833e84879b9709143e1f593f000000190610c68565b6003546040516345e857ab60e01b81529192506001600160a01b0316906345e857ab90610a119085908590600401610c87565b602060405180830381865afa158015610a2c573d5f5f3e3d5ffd5b505050506040513d601f19601f82011682018060405250810190610a509190610cc0565b955050505050505b979650505050505050565b610a6d8282610551565b610a9c5760405163e2517d3f60e01b81526001600160a01b038216600482015260248101839052604401610471565b5050565b60015460ff1661086457604051638dfc202b60e01b815260040160405180910390fd5b6040518061010001604052806008906020820280368337509192915050565b5f60208284031215610af2575f5ffd5b81356001600160e01b031981168114610b09575f5ffd5b9392505050565b5f60208284031215610b20575f5ffd5b5035919050565b80356001600160a01b0381168114610b3d575f5ffd5b919050565b5f5f60408385031215610b53575f5ffd5b82359150610b6360208401610b27565b90509250929050565b803560ff81168114610b3d575f5ffd5b5f5f5f5f5f5f5f60c0888a031215610b92575f5ffd5b873567ffffffffffffffff811115610ba8575f5ffd5b8801601f81018a13610bb8575f5ffd5b803567ffffffffffffffff811115610bce575f5ffd5b8a6020828401011115610bdf575f5ffd5b6020918201985096508801359450604088013593506060880135925060808801359150610c0e60a08901610b6c565b905092959891949750929550565b5f60208284031215610c2c575f5ffd5b610b0982610b27565b8082018082111561035e57634e487b7160e01b5f52601160045260245ffd5b634e487b7160e01b5f52603260045260245ffd5b5f82610c8257634e487b7160e01b5f52601260045260245ffd5b500690565b610120810181845f5b6008811015610caf578151835260209283019290910190600101610c90565b505050826101008301529392505050565b5f60208284031215610cd0575f5ffd5b81518015158114610b09575f5ffdfea2646970667358221220dcbe62031edada2e0e1c3e793e50c77641e74ca0b0b01e8fc85c397faa37afce64736f6c63430008210033","linkReferences":{}},"methodIdentifiers":{"DEFAULT_ADMIN_ROLE()":"a217fddf","MAX_DEPTH()":"a27154ba","MIN_DEPTH()":"c8e465ab","PAUSER_ROLE()":"e63ab1e9","UPGRADER_ROLE()":"f72c0d8b","VERIFIER_UPDATE_DELAY()":"e5fa92ee","getRoleAdmin(bytes32)":"248a9ca3","grantRole(bytes32,address)":"2f2ff15d","groth16Verifier()":"19c813be","hasRole(bytes32,address)":"91d14854","isNullifierUsed(bytes32)":"22dc7b4c","lastVerifierUpdate()":"190d0a10","maxMembers()":"bf4386a0","nullifierUsed(bytes32)":"7ecf686d","pause()":"8456cb59","paused()":"5c975abb","renounceRole(bytes32,address)":"36568abe","revokeRole(bytes32,address)":"d547741f","supportsInterface(bytes4)":"01ffc9a7","unpause()":"3f4ba83a","updateVerifier(address)":"97fc007c","verifyProof(bytes,bytes32,bytes32,bytes32,bytes32,uint8)":"8d2a05b2"},"id":27}