{"abi":[{"type":"function","name":"verifyProof","inputs":[{"name":"proof","type":"uint256[8]","internalType":"uint256[8]"},{"name":"publicInput","type":"uint256","internalType":"uint256"}],"outputs":[{"name":"","type":"bool","internalType":"bool"}],"stateMutability":"view"},{"type":"error","name":"InvalidProof","inputs":[]},{"type":"error","name":"InvalidPublicInput","inputs":[]},{"type":"error","name":"PairingFailed","inputs":[]}],"bytecode":{"object":"0x6080604052348015600e575f5ffd5b506106788061001c5f395ff3fe608060405234801561000f575f5ffd5b5060043610610029575f3560e01c806345e857ab1461002d575b5f5ffd5b61004061003b3660046105f6565b610054565b604051901515815260200160405180910390f35b5f7f30644e72e131a029b85045b68181585d2833e84879b9709143e1f593f0000001821061009557604051633a2c651760e11b815260040160405180910390fd5b7f02a4e05bed12976cacfe168fc5d52d35607f498874a2b65a72654ef12065137e7f24c9d34c37cdc8b92101ce6676be7b2719fc1614385378564e5e1f9ec4efe07a5f806101247f0358dbe66ac4d13366ae8d91b9bc67e4020e11b21c61d14062a3e4235eabced07f05fbf9cca81492825a6316792161ba4e35591f188a7e39fcce1a292054c1441a88610175565b9150915061013484848484610200565b90945092506101688735602089013560408a013560608b013560808c013560a08d013560c08e013560e08f01358c8c61028e565b9450505050505b92915050565b5f5f61017f61055f565b858152602081018590526040810184905261019861057d565b5f60408260608560076107d05a03fa9050806101ea5760405162461bcd60e51b815260206004820152600c60248201526b1958d35d5b0819985a5b195960a21b60448201526064015b60405180910390fd5b5080516020909101519097909650945050505050565b5f5f61020a61059b565b86815260208101869052604081018590526060810184905261022a61057d565b5f60408260808560066107d05a03fa9050806102775760405162461bcd60e51b815260206004820152600c60248201526b1958d059190819985a5b195960a21b60448201526064016101e1565b508051602090910151909890975095505050505050565b5f6102976105b9565b8b81526102c48b7f30644e72e131a029b85045b68181585d97816a916871ca8d3c208c16d87cfd47610623565b6020820152604081018a9052606081018990526080810188905260a081018790527f0af2c4ad40c3bf1a234612c4bc3ceb7e7b8efc6c43b25278accf3fc8d4f47bfc60c08201527f13a20c78bbc2497cd44e0ab6fc2bf573d269070c6e9ca7b1380aa9dfa7934cd560e08201527f103cdf3c987b1c7e28a6feab73b300a6c85a01b36ddfe88f8b133b7c5c797aaa6101008201527f305af8adbb29f56a3ce1509ea9442e239cc5501beb7e2aa84c8cf45f2b61fa5c6101208201527f2ebd317e792ab593028ebf61e14aea0d1f150770c2c0f05384763e1f069534ba6101408201527f16ca8b4078f94197504352b9fb577fcee74cd2ecfd5801c19660cbe64bb8947e61016082015261018081018490526101a081018390527f2b3f62cec751449eeec1597cf4aebfce711a1a1265bc4d8e1e7ad8dc37eddf4a6101c08201527f0b750f175138e42380c97bcbe292fa7f752e6b7c69cc82b740a749b38a0ad79e6101e08201527f088f92774e16c66ad47f939b07ae0903139d5e6ef1668f10b1c9abde97281ef36102008201527f1075d3cf9b06f5a49871cb3cba3affcfcc651470e085aeb9412696292de8f0e2610220820152610240810186905261026081018590527f1ac0085d58dd301e360fce5356eb402ea77bcd36f0672e51579b41633c7aa4ca6102808201527f1a55045d9fbe8120538e8c289538832c0927e3d0e211b0ff43bc1aa7dd63cd866102a08201527f27952cdd0d489db9a891f882906370f34fe877a3817ff05457e054e344f92ebe6102c08201527f0ac8a933f145ecce425589a700769ada27baea0e38ad35eb2dab54afa90e2fa26102e082015261052d6105d8565b5f6020826103008560086107d05a03fa905080801561054d575081516001145b9e9d5050505050505050505050505050565b60405180606001604052806003906020820280368337509192915050565b60405180604001604052806002906020820280368337509192915050565b60405180608001604052806004906020820280368337509192915050565b6040518061030001604052806018906020820280368337509192915050565b60405180602001604052806001906020820280368337509192915050565b5f5f6101208385031215610608575f5ffd5b610100830184811115610619575f5ffd5b9294923593505050565b8181038181111561016f57634e487b7160e01b5f52601160045260245ffdfea264697066735822122073ad27191144d41e84e2743ef973b3e420c749c4937bd99b3a19c79daeaf4c3864736f6c63430008210033","linkReferences":{}},"methodIdentifiers":{"verifyProof(uint256[8],uint256)":"45e857ab"},"id":26}