{"abi":[{"type":"function","name":"maxTreeDepth","inputs":[],"outputs":[{"name":"","type":"uint8","internalType":"uint8"}],"stateMutability":"pure"},{"type":"function","name":"verifyProof","inputs":[{"name":"proof","type":"uint256[8]","internalType":"uint256[8]"},{"name":"publicInputs","type":"uint256[5]","internalType":"uint256[5]"}],"outputs":[{"name":"","type":"bool","internalType":"bool"}],"stateMutability":"view"},{"type":"error","name":"InvalidProof","inputs":[]},{"type":"error","name":"InvalidPublicInput","inputs":[]},{"type":"error","name":"PairingFailed","inputs":[]}],"bytecode":{"object":"0x6080604052348015600e575f5ffd5b50610dd98061001c5f395ff3fe608060405234801561000f575f5ffd5b5060043610610034575f3560e01c80632a07d99a14610038578063d3f9fa5114610068575b5f5ffd5b610052600480360381019061004d9190610b86565b610086565b60405161005f9190610be0565b60405180910390f35b61007061033c565b60405161007d9190610c14565b60405180910390f35b5f5f5f90505b6005811015610112577f30644e72e131a029b85045b68181585d2833e84879b9709143e1f593f00000018382600581106100c9576100c8610c2d565b5b602002013510610105576040517f7458ca2e00000000000000000000000000000000000000000000000000000000815260040160405180910390fd5b808060010191505061008c565b505f5f60019150600290505f5f61014360016002885f6005811061013957610138610c2d565b5b6020020135610344565b915091506101538484848461043c565b8094508195505050610180600160028860016005811061017657610175610c2d565b5b6020020135610344565b80925081935050506101948484848461043c565b80945081955050506101c160016002886002600581106101b7576101b6610c2d565b5b6020020135610344565b80925081935050506101d58484848461043c565b809450819550505061020260016002886003600581106101f8576101f7610c2d565b5b6020020135610344565b80925081935050506102168484848461043c565b8094508195505050610243600160028860046005811061023957610238610c2d565b5b6020020135610344565b80925081935050506102578484848461043c565b8094508195505050610330875f6008811061027557610274610c2d565b5b60200201358860016008811061028e5761028d610c2d565b5b6020020135896002600881106102a7576102a6610c2d565b5b60200201358a6003600881106102c0576102bf610c2d565b5b60200201358b6004600881106102d9576102d8610c2d565b5b60200201358c6005600881106102f2576102f1610c2d565b5b60200201358d60066008811061030b5761030a610c2d565b5b60200201358e60076008811061032457610323610c2d565b5b60200201358c8c610553565b94505050505092915050565b5f6032905090565b5f5f61034e610a91565b85815f6003811061036257610361610c2d565b5b60200201818152505084816001600381106103805761037f610c2d565b5b602002018181525050838160026003811061039e5761039d610c2d565b5b6020020181815250506103af610ab3565b5f60408260608560075afa9050806103fc576040517f08c379a00000000000000000000000000000000000000000000000000000000081526004016103f390610cb4565b60405180910390fd5b815f6002811061040f5761040e610c2d565b5b60200201518260016002811061042857610427610c2d565b5b602002015194509450505050935093915050565b5f5f610446610ad5565b86815f6004811061045a57610459610c2d565b5b602002018181525050858160016004811061047857610477610c2d565b5b602002018181525050848160026004811061049657610495610c2d565b5b60200201818152505083816003600481106104b4576104b3610c2d565b5b6020020181815250506104c5610ab3565b5f60408260808560065afa905080610512576040517f08c379a000000000000000000000000000000000000000000000000000000000815260040161050990610d1c565b60405180910390fd5b815f6002811061052557610524610c2d565b5b60200201518260016002811061053e5761053d610c2d565b5b60200201519450945050505094509492505050565b5f61055c610af7565b8b815f601881106105705761056f610c2d565b5b6020020181815250508a7f30644e72e131a029b85045b68181585d97816a916871ca8d3c208c16d87cfd476105a59190610d70565b816001601881106105b9576105b8610c2d565b5b60200201818152505088816002601881106105d7576105d6610c2d565b5b60200201818152505089816003601881106105f5576105f4610c2d565b5b602002018181525050868160046018811061061357610612610c2d565b5b602002018181525050878160056018811061063157610630610c2d565b5b6020020181815250507f2d4d9aa7e302d9df41749d5507949d05dbea33fbb16c643b22f599a2be6df2e28160066018811061066f5761066e610c2d565b5b6020020181815250507f14bedd503c37ceb061d8ec60209fe345ce89830a19230b59fe0aa8ab8873eb52816007601881106106ad576106ac610c2d565b5b6020020181815250507f0c83355e6f14af24f1ed7d01cdaa68d820808c0cd0f6b3cb56b9b9b80b6d21cc816008601881106106eb576106ea610c2d565b5b6020020181815250507f0cf031d41b41557f3e7e3ba0c51bebe5da8e6ecd855ec50fc87efcdeac168bcc8160096018811061072957610728610c2d565b5b6020020181815250507f0f4b35b2bf8e5c8c7c3b1a0f9e8d7c6b5a4938271605f4e3d2c1b0a9f8e7d6c581600a6018811061076757610766610c2d565b5b6020020181815250507f5b54c3ee6d1ea1b74f2e72e7c7b5a82a1e5f08e6e9c4b1c4c6c1c0c3c7c8c9ca81600b601881106107a5576107a4610c2d565b5b6020020181815250508381600c601881106107c3576107c2610c2d565b5b6020020181815250508281600d601881106107e1576107e0610c2d565b5b6020020181815250507f1800deef121f1e76426a00665e5c4479674322d4f75edadd46debd5cd992f6ed81600e6018811061081f5761081e610c2d565b5b6020020181815250507f198e9393920d483a7260bfb731fb5d25f1aa493335a9e71297e485b7aef312c281600f6018811061085d5761085c610c2d565b5b6020020181815250507f12c85ea5db8c6deb4aab71808dcb408fe3d1e7690c43d37b4ce6cc0166fa7daa8160106018811061089b5761089a610c2d565b5b6020020181815250507f090689d0585ff075ec9e99ad690c3395bc4b313370b38ef355acdadcd122975b816011601881106108d9576108d8610c2d565b5b60200201818152505085816012601881106108f7576108f6610c2d565b5b602002018181525050848160136018811061091557610914610c2d565b5b6020020181815250507f091058a3141822985733cbdddfed0fd8d6c104e9e9eff40bf5abfef9e154f04a8160146018811061095357610952610c2d565b5b6020020181815250507f1971ff0471b09fa93caaf13cbf443c1aede09cc4328f5a62aad45f40ec133eb48160156018811061099157610990610c2d565b5b6020020181815250507f23a8eb0b0996252cb548a4487da97b02422ebc0e834613f954de6c7a0dee6fef816016601881106109cf576109ce610c2d565b5b6020020181815250507f2a23af9a5ce2ba2796c1f4e453a370eb0af8c212d9dc9acd8fc02c2e907baea281601760188110610a0d57610a0c610c2d565b5b602002018181525050610a1e610b1a565b5f6020826103008560085afa905080610a63576040517f4df45e2f00000000000000000000000000000000000000000000000000000000815260040160405180910390fd5b6001825f60018110610a7857610a77610c2d565b5b60200201511493505050509a9950505050505050505050565b6040518060600160405280600390602082028036833780820191505090505090565b6040518060400160405280600290602082028036833780820191505090505090565b6040518060800160405280600490602082028036833780820191505090505090565b604051806103000160405280601890602082028036833780820191505090505090565b6040518060200160405280600190602082028036833780820191505090505090565b5f5ffd5b5f5ffd5b5f81905082602060080282011115610b5f57610b5e610b40565b5b92915050565b5f81905082602060050282011115610b8057610b7f610b40565b5b92915050565b5f5f6101a08385031215610b9d57610b9c610b3c565b5b5f610baa85828601610b44565b925050610100610bbc85828601610b65565b9150509250929050565b5f8115159050919050565b610bda81610bc6565b82525050565b5f602082019050610bf35f830184610bd1565b92915050565b5f60ff82169050919050565b610c0e81610bf9565b82525050565b5f602082019050610c275f830184610c05565b92915050565b7f4e487b71000000000000000000000000000000000000000000000000000000005f52603260045260245ffd5b5f82825260208201905092915050565b7f65634d756c206661696c656400000000000000000000000000000000000000005f82015250565b5f610c9e600c83610c5a565b9150610ca982610c6a565b602082019050919050565b5f6020820190508181035f830152610ccb81610c92565b9050919050565b7f6563416464206661696c656400000000000000000000000000000000000000005f82015250565b5f610d06600c83610c5a565b9150610d1182610cd2565b602082019050919050565b5f6020820190508181035f830152610d3381610cfa565b9050919050565b5f819050919050565b7f4e487b71000000000000000000000000000000000000000000000000000000005f52601160045260245ffd5b5f610d7a82610d3a565b9150610d8583610d3a565b9250828203905081811115610d9d57610d9c610d43565b5b9291505056fea264697066735822122030f8897cd1f2996bda54f5df448180cdae0444c5f82f1518fad1baadd70d792f64736f6c63430008210033","linkReferences":{}},"methodIdentifiers":{"maxTreeDepth()":"d3f9fa51","verifyProof(uint256[8],uint256[5])":"2a07d99a"},"id":16}