{"abi":[{"type":"constructor","inputs":[{"name":"_verifier","type":"address","internalType":"address"}],"stateMutability":"nonpayable"},{"type":"function","name":"nullifierUsed","inputs":[{"name":"","type":"uint256","internalType":"uint256"}],"outputs":[{"name":"","type":"bool","internalType":"bool"}],"stateMutability":"view"},{"type":"function","name":"verifier","inputs":[],"outputs":[{"name":"","type":"address","internalType":"contract Groth16Verifier"}],"stateMutability":"view"},{"type":"function","name":"verifyProof","inputs":[{"name":"proof","type":"uint256[8]","internalType":"uint256[8]"},{"name":"merkleRoot","type":"uint256","internalType":"uint256"},{"name":"nullifierHash","type":"uint256","internalType":"uint256"},{"name":"signalHash","type":"uint256","internalType":"uint256"},{"name":"externalNullifier","type":"uint256","internalType":"uint256"},{"name":"treeDepth","type":"uint256","internalType":"uint256"}],"outputs":[],"stateMutability":"nonpayable"},{"type":"event","name":"ProofVerified","inputs":[{"name":"merkleRoot","type":"uint256","indexed":true,"internalType":"uint256"},{"name":"nullifierHash","type":"uint256","indexed":true,"internalType":"uint256"},{"name":"signalHash","type":"uint256","indexed":false,"internalType":"uint256"},{"name":"treeDepth","type":"uint256","indexed":false,"internalType":"uint256"}],"anonymous":false},{"type":"error","name":"DepthTooLarge","inputs":[]},{"type":"error","name":"InvalidProof","inputs":[]},{"type":"error","name":"NullifierAlreadyUsed","inputs":[]}],"bytecode":{"object":"0x60a060405234801561000f575f5ffd5b5060405161077e38038061077e833981810160405281019061003191906100c9565b8073ffffffffffffffffffffffffffffffffffffffff1660808173ffffffffffffffffffffffffffffffffffffffff1681525050506100f4565b5f5ffd5b5f73ffffffffffffffffffffffffffffffffffffffff82169050919050565b5f6100988261006f565b9050919050565b6100a88161008e565b81146100b2575f5ffd5b50565b5f815190506100c38161009f565b92915050565b5f602082840312156100de576100dd61006b565b5b5f6100eb848285016100b5565b91505092915050565b60805161066c6101125f395f818160af015261018d015261066c5ff3fe608060405234801561000f575f5ffd5b506004361061003f575f3560e01c80632b7ac3f31461004357806344681aef1461006157806379f95ee91461007d575b5f5ffd5b61004b6100ad565b6040516100589190610361565b60405180910390f35b61007b600480360381019061007691906103d6565b6100d1565b005b61009760048036038101906100929190610465565b6102cb565b6040516100a491906104aa565b60405180910390f35b7f000000000000000000000000000000000000000000000000000000000000000081565b603281111561010c576040517f3e104c7700000000000000000000000000000000000000000000000000000000815260040160405180910390fd5b5f5f8581526020019081526020015f205f9054906101000a900460ff1615610160576040517fcad2ae0200000000000000000000000000000000000000000000000000000000815260040160405180910390fd5b5f6040518060a001604052808781526020018681526020018581526020018481526020018381525090505f7f000000000000000000000000000000000000000000000000000000000000000073ffffffffffffffffffffffffffffffffffffffff16632a07d99a89846040518363ffffffff1660e01b81526004016101e6929190610582565b602060405180830381865afa158015610201573d5f5f3e3d5ffd5b505050506040513d601f19601f8201168201806040525081019061022591906105d5565b90508061025e576040517f09bde33900000000000000000000000000000000000000000000000000000000815260040160405180910390fd5b60015f5f8881526020019081526020015f205f6101000a81548160ff02191690831515021790555085877f80e303d0aad176107b4ce4f8c65dc7f16df914f319bad37d18f35c02f0a597db87866040516102b992919061060f565b60405180910390a35050505050505050565b5f602052805f5260405f205f915054906101000a900460ff1681565b5f73ffffffffffffffffffffffffffffffffffffffff82169050919050565b5f819050919050565b5f61032961032461031f846102e7565b610306565b6102e7565b9050919050565b5f61033a8261030f565b9050919050565b5f61034b82610330565b9050919050565b61035b81610341565b82525050565b5f6020820190506103745f830184610352565b92915050565b5f5ffd5b5f5ffd5b5f8190508260206008028201111561039d5761039c61037e565b5b92915050565b5f819050919050565b6103b5816103a3565b81146103bf575f5ffd5b50565b5f813590506103d0816103ac565b92915050565b5f5f5f5f5f5f6101a087890312156103f1576103f061037a565b5b5f6103fe89828a01610382565b96505061010061041089828a016103c2565b95505061012061042289828a016103c2565b94505061014061043489828a016103c2565b93505061016061044689828a016103c2565b92505061018061045889828a016103c2565b9150509295509295509295565b5f6020828403121561047a5761047961037a565b5b5f610487848285016103c2565b91505092915050565b5f8115159050919050565b6104a481610490565b82525050565b5f6020820190506104bd5f83018461049b565b92915050565b82818337505050565b6104d961010083836104c3565b5050565b5f60059050919050565b5f81905092915050565b5f819050919050565b610503816103a3565b82525050565b5f61051483836104fa565b60208301905092915050565b5f602082019050919050565b610535816104dd565b61053f81846104e7565b925061054a826104f1565b805f5b8381101561057a5781516105618782610509565b965061056c83610520565b92505060018101905061054d565b505050505050565b5f6101a0820190506105965f8301856104cc565b6105a461010083018461052c565b9392505050565b6105b481610490565b81146105be575f5ffd5b50565b5f815190506105cf816105ab565b92915050565b5f602082840312156105ea576105e961037a565b5b5f6105f7848285016105c1565b91505092915050565b610609816103a3565b82525050565b5f6040820190506106225f830185610600565b61062f6020830184610600565b939250505056fea26469706673582212204073152e4f7031e1a14178c1c02a6c90dc755fbc7e0744c6edef12e90d0f3bd264736f6c63430008210033","linkReferences":{}},"methodIdentifiers":{"nullifierUsed(uint256)":"79f95ee9","verifier()":"2b7ac3f3","verifyProof(uint256[8],uint256,uint256,uint256,uint256,uint256)":"44681aef"},"id":16}