{"abi":[{"type":"constructor","inputs":[{"name":"_addressesProvider","type":"address","internalType":"address"},{"name":"_pool","type":"address","internalType":"address"},{"name":"_swapRouter","type":"address","internalType":"address"}],"stateMutability":"nonpayable"},{"type":"receive","stateMutability":"payable"},{"type":"function","name":"ADDRESSES_PROVIDER","inputs":[],"outputs":[{"name":"","type":"address","internalType":"contract IPoolAddressesProvider"}],"stateMutability":"view"},{"type":"function","name":"OWNER","inputs":[],"outputs":[{"name":"","type":"address","internalType":"address"}],"stateMutability":"view"},{"type":"function","name":"POOL","inputs":[],"outputs":[{"name":"","type":"address","internalType":"contract IPool"}],"stateMutability":"view"},{"type":"function","name":"SWAP_ROUTER","inputs":[],"outputs":[{"name":"","type":"address","internalType":"contract ISwapRouter"}],"stateMutability":"view"},{"type":"function","name":"executeLiquidation","inputs":[{"name":"debtAsset","type":"address","internalType":"address"},{"name":"debtAmount","type":"uint256","internalType":"uint256"},{"name":"collateralAsset","type":"address","internalType":"address"},{"name":"userToLiquidate","type":"address","internalType":"address"},{"name":"swapPoolFee","type":"uint24","internalType":"uint24"}],"outputs":[],"stateMutability":"nonpayable"},{"type":"function","name":"executeOperation","inputs":[{"name":"asset","type":"address","internalType":"address"},{"name":"amount","type":"uint256","internalType":"uint256"},{"name":"premium","type":"uint256","internalType":"uint256"},{"name":"initiator","type":"address","internalType":"address"},{"name":"params","type":"bytes","internalType":"bytes"}],"outputs":[{"name":"","type":"bool","internalType":"bool"}],"stateMutability":"nonpayable"},{"type":"function","name":"rescue","inputs":[{"name":"token","type":"address","internalType":"address"}],"outputs":[],"stateMutability":"nonpayable"},{"type":"function","name":"rescueETH","inputs":[],"outputs":[],"stateMutability":"nonpayable"}],"bytecode":{"object":"0x610100604052348015610010575f5ffd5b5060405161191238038061191283398181016040528101906100329190610168565b8273ffffffffffffffffffffffffffffffffffffffff1660a08173ffffffffffffffffffffffffffffffffffffffff16815250508173ffffffffffffffffffffffffffffffffffffffff1660808173ffffffffffffffffffffffffffffffffffffffff16815250508073ffffffffffffffffffffffffffffffffffffffff1660c08173ffffffffffffffffffffffffffffffffffffffff16815250503373ffffffffffffffffffffffffffffffffffffffff1660e08173ffffffffffffffffffffffffffffffffffffffff16815250505050506101b8565b5f5ffd5b5f73ffffffffffffffffffffffffffffffffffffffff82169050919050565b5f6101378261010e565b9050919050565b6101478161012d565b8114610151575f5ffd5b50565b5f815190506101628161013e565b92915050565b5f5f5f6060848603121561017f5761017e61010a565b5b5f61018c86828701610154565b935050602061019d86828701610154565b92505060406101ae86828701610154565b9150509250925092565b60805160a05160c05160e0516116cc6102465f395f81816101f9015281816107cb01528181610863015281816108f10152818161097b01528181610aa80152610b2d01525f8181610537015281816106610152610c7a01525f6101d501525f818161021e01528181610351015281816103d101528181610718015281816109570152610be401526116cc5ff3fe60806040526004361061007e575f3560e01c80637535d2461161004d5780637535d2461461012f578063839006f214610159578063b6a4f53b14610181578063c6005893146101a957610085565b80630542975c14610089578063117803e3146100b35780631b11d0ff146100dd57806320800a001461011957610085565b3661008557005b5f5ffd5b348015610094575f5ffd5b5061009d6101d3565b6040516100aa9190610d16565b60405180910390f35b3480156100be575f5ffd5b506100c76101f7565b6040516100d49190610d4f565b60405180910390f35b3480156100e8575f5ffd5b5061010360048036038101906100fe9190610e2e565b61021b565b6040516101109190610ede565b60405180910390f35b348015610124575f5ffd5b5061012d610861565b005b34801561013a575f5ffd5b50610143610955565b6040516101509190610f17565b60405180910390f35b348015610164575f5ffd5b5061017f600480360381019061017a9190610f30565b610979565b005b34801561018c575f5ffd5b506101a760048036038101906101a29190610f93565b610b2b565b005b3480156101b4575f5ffd5b506101bd610c78565b6040516101ca919061102a565b60405180910390f35b7f000000000000000000000000000000000000000000000000000000000000000081565b7f000000000000000000000000000000000000000000000000000000000000000081565b5f7f000000000000000000000000000000000000000000000000000000000000000073ffffffffffffffffffffffffffffffffffffffff163373ffffffffffffffffffffffffffffffffffffffff16146102aa576040517f08c379a00000000000000000000000000000000000000000000000000000000081526004016102a19061109d565b60405180910390fd5b3073ffffffffffffffffffffffffffffffffffffffff168473ffffffffffffffffffffffffffffffffffffffff1614610318576040517f08c379a000000000000000000000000000000000000000000000000000000000815260040161030f90611105565b60405180910390fd5b5f5f5f5f868681019061032b919061115e565b93509350935093508a73ffffffffffffffffffffffffffffffffffffffff1663095ea7b37f00000000000000000000000000000000000000000000000000000000000000008c6040518363ffffffff1660e01b815260040161038e9291906111d1565b6020604051808303815f875af11580156103aa573d5f5f3e3d5ffd5b505050506040513d601f19601f820116820180604052508101906103ce9190611222565b507f000000000000000000000000000000000000000000000000000000000000000073ffffffffffffffffffffffffffffffffffffffff1662a718a98584868e5f6040518663ffffffff1660e01b815260040161042f95949392919061124d565b5f604051808303815f87803b158015610446575f5ffd5b505af1158015610458573d5f5f3e3d5ffd5b505050505f8473ffffffffffffffffffffffffffffffffffffffff166370a08231306040518263ffffffff1660e01b81526004016104969190610d4f565b602060405180830381865afa1580156104b1573d5f5f3e3d5ffd5b505050506040513d601f19601f820116820180604052508101906104d591906112b2565b90505f8111610519576040517f08c379a000000000000000000000000000000000000000000000000000000000815260040161051090611327565b60405180910390fd5b8473ffffffffffffffffffffffffffffffffffffffff1663095ea7b37f0000000000000000000000000000000000000000000000000000000000000000836040518363ffffffff1660e01b81526004016105749291906111d1565b6020604051808303815f875af1158015610590573d5f5f3e3d5ffd5b505050506040513d601f19601f820116820180604052508101906105b49190611222565b505f8a8c6105c29190611372565b90505f6040518061010001604052808873ffffffffffffffffffffffffffffffffffffffff1681526020018673ffffffffffffffffffffffffffffffffffffffff1681526020018562ffffff1681526020013073ffffffffffffffffffffffffffffffffffffffff1681526020014281526020018481526020018381526020015f73ffffffffffffffffffffffffffffffffffffffff1681525090505f7f000000000000000000000000000000000000000000000000000000000000000073ffffffffffffffffffffffffffffffffffffffff1663414bf389836040518263ffffffff1660e01b81526004016106b89190611481565b6020604051808303815f875af11580156106d4573d5f5f3e3d5ffd5b505050506040513d601f19601f820116820180604052508101906106f891906112b2565b90508e73ffffffffffffffffffffffffffffffffffffffff1663095ea7b37f0000000000000000000000000000000000000000000000000000000000000000856040518363ffffffff1660e01b81526004016107559291906111d1565b6020604051808303815f875af1158015610771573d5f5f3e3d5ffd5b505050506040513d601f19601f820116820180604052508101906107959190611222565b505f83826107a3919061149b565b90505f81111561084a578f73ffffffffffffffffffffffffffffffffffffffff1663a9059cbb7f0000000000000000000000000000000000000000000000000000000000000000836040518363ffffffff1660e01b81526004016108089291906111d1565b6020604051808303815f875af1158015610824573d5f5f3e3d5ffd5b505050506040513d601f19601f820116820180604052508101906108489190611222565b505b600199505050505050505050509695505050505050565b7f000000000000000000000000000000000000000000000000000000000000000073ffffffffffffffffffffffffffffffffffffffff163373ffffffffffffffffffffffffffffffffffffffff16146108ef576040517f08c379a00000000000000000000000000000000000000000000000000000000081526004016108e690611518565b60405180910390fd5b7f000000000000000000000000000000000000000000000000000000000000000073ffffffffffffffffffffffffffffffffffffffff166108fc4790811502906040515f60405180830381858888f19350505050158015610952573d5f5f3e3d5ffd5b50565b7f000000000000000000000000000000000000000000000000000000000000000081565b7f000000000000000000000000000000000000000000000000000000000000000073ffffffffffffffffffffffffffffffffffffffff163373ffffffffffffffffffffffffffffffffffffffff1614610a07576040517f08c379a00000000000000000000000000000000000000000000000000000000081526004016109fe90611518565b60405180910390fd5b5f8173ffffffffffffffffffffffffffffffffffffffff166370a08231306040518263ffffffff1660e01b8152600401610a419190610d4f565b602060405180830381865afa158015610a5c573d5f5f3e3d5ffd5b505050506040513d601f19601f82011682018060405250810190610a8091906112b2565b90505f811115610b27578173ffffffffffffffffffffffffffffffffffffffff1663a9059cbb7f0000000000000000000000000000000000000000000000000000000000000000836040518363ffffffff1660e01b8152600401610ae59291906111d1565b6020604051808303815f875af1158015610b01573d5f5f3e3d5ffd5b505050506040513d601f19601f82011682018060405250810190610b259190611222565b505b5050565b7f000000000000000000000000000000000000000000000000000000000000000073ffffffffffffffffffffffffffffffffffffffff163373ffffffffffffffffffffffffffffffffffffffff1614610bb9576040517f08c379a0000000000000000000000000000000000000000000000000000000008152600401610bb090611518565b60405180910390fd5b5f83838784604051602001610bd19493929190611545565b60405160208183030381529060405290507f000000000000000000000000000000000000000000000000000000000000000073ffffffffffffffffffffffffffffffffffffffff166342b0b77c308888855f6040518663ffffffff1660e01b8152600401610c4395949392919061163e565b5f604051808303815f87803b158015610c5a575f5ffd5b505af1158015610c6c573d5f5f3e3d5ffd5b50505050505050505050565b7f000000000000000000000000000000000000000000000000000000000000000081565b5f73ffffffffffffffffffffffffffffffffffffffff82169050919050565b5f819050919050565b5f610cde610cd9610cd484610c9c565b610cbb565b610c9c565b9050919050565b5f610cef82610cc4565b9050919050565b5f610d0082610ce5565b9050919050565b610d1081610cf6565b82525050565b5f602082019050610d295f830184610d07565b92915050565b5f610d3982610c9c565b9050919050565b610d4981610d2f565b82525050565b5f602082019050610d625f830184610d40565b92915050565b5f5ffd5b5f5ffd5b610d7981610d2f565b8114610d83575f5ffd5b50565b5f81359050610d9481610d70565b92915050565b5f819050919050565b610dac81610d9a565b8114610db6575f5ffd5b50565b5f81359050610dc781610da3565b92915050565b5f5ffd5b5f5ffd5b5f5ffd5b5f5f83601f840112610dee57610ded610dcd565b5b8235905067ffffffffffffffff811115610e0b57610e0a610dd1565b5b602083019150836001820283011115610e2757610e26610dd5565b5b9250929050565b5f5f5f5f5f5f60a08789031215610e4857610e47610d68565b5b5f610e5589828a01610d86565b9650506020610e6689828a01610db9565b9550506040610e7789828a01610db9565b9450506060610e8889828a01610d86565b935050608087013567ffffffffffffffff811115610ea957610ea8610d6c565b5b610eb589828a01610dd9565b92509250509295509295509295565b5f8115159050919050565b610ed881610ec4565b82525050565b5f602082019050610ef15f830184610ecf565b92915050565b5f610f0182610ce5565b9050919050565b610f1181610ef7565b82525050565b5f602082019050610f2a5f830184610f08565b92915050565b5f60208284031215610f4557610f44610d68565b5b5f610f5284828501610d86565b91505092915050565b5f62ffffff82169050919050565b610f7281610f5b565b8114610f7c575f5ffd5b50565b5f81359050610f8d81610f69565b92915050565b5f5f5f5f5f60a08688031215610fac57610fab610d68565b5b5f610fb988828901610d86565b9550506020610fca88828901610db9565b9450506040610fdb88828901610d86565b9350506060610fec88828901610d86565b9250506080610ffd88828901610f7f565b9150509295509295909350565b5f61101482610ce5565b9050919050565b6110248161100a565b82525050565b5f60208201905061103d5f83018461101b565b92915050565b5f82825260208201905092915050565b7f43616c6c6572206e6f74204141564520506f6f6c0000000000000000000000005f82015250565b5f611087601483611043565b915061109282611053565b602082019050919050565b5f6020820190508181035f8301526110b48161107b565b9050919050565b7f496e69746961746f72206e6f742073656c6600000000000000000000000000005f82015250565b5f6110ef601283611043565b91506110fa826110bb565b602082019050919050565b5f6020820190508181035f83015261111c816110e3565b9050919050565b5f61112d82610c9c565b9050919050565b61113d81611123565b8114611147575f5ffd5b50565b5f8135905061115881611134565b92915050565b5f5f5f5f6080858703121561117657611175610d68565b5b5f6111838782880161114a565b94505060206111948782880161114a565b93505060406111a58782880161114a565b92505060606111b687828801610f7f565b91505092959194509250565b6111cb81610d9a565b82525050565b5f6040820190506111e45f830185610d40565b6111f160208301846111c2565b9392505050565b61120181610ec4565b811461120b575f5ffd5b50565b5f8151905061121c816111f8565b92915050565b5f6020828403121561123757611236610d68565b5b5f6112448482850161120e565b91505092915050565b5f60a0820190506112605f830188610d40565b61126d6020830187610d40565b61127a6040830186610d40565b61128760608301856111c2565b6112946080830184610ecf565b9695505050505050565b5f815190506112ac81610da3565b92915050565b5f602082840312156112c7576112c6610d68565b5b5f6112d48482850161129e565b91505092915050565b7f4e6f20636f6c6c61746572616c207265636569766564000000000000000000005f82015250565b5f611311601683611043565b915061131c826112dd565b602082019050919050565b5f6020820190508181035f83015261133e81611305565b9050919050565b7f4e487b71000000000000000000000000000000000000000000000000000000005f52601160045260245ffd5b5f61137c82610d9a565b915061138783610d9a565b925082820190508082111561139f5761139e611345565b5b92915050565b6113ae81610d2f565b82525050565b6113bd81610f5b565b82525050565b6113cc81610d9a565b82525050565b6113db81610c9c565b82525050565b61010082015f8201516113f65f8501826113a5565b50602082015161140960208501826113a5565b50604082015161141c60408501826113b4565b50606082015161142f60608501826113a5565b50608082015161144260808501826113c3565b5060a082015161145560a08501826113c3565b5060c082015161146860c08501826113c3565b5060e082015161147b60e08501826113d2565b50505050565b5f610100820190506114955f8301846113e1565b92915050565b5f6114a582610d9a565b91506114b083610d9a565b92508282039050818111156114c8576114c7611345565b5b92915050565b7f4e6f74206f776e657200000000000000000000000000000000000000000000005f82015250565b5f611502600983611043565b915061150d826114ce565b602082019050919050565b5f6020820190508181035f83015261152f816114f6565b9050919050565b61153f81610f5b565b82525050565b5f6080820190506115585f830187610d40565b6115656020830186610d40565b6115726040830185610d40565b61157f6060830184611536565b95945050505050565b5f81519050919050565b5f82825260208201905092915050565b8281835e5f83830152505050565b5f601f19601f8301169050919050565b5f6115ca82611588565b6115d48185611592565b93506115e48185602086016115a2565b6115ed816115b0565b840191505092915050565b5f819050919050565b5f61ffff82169050919050565b5f61162861162361161e846115f8565b610cbb565b611601565b9050919050565b6116388161160e565b82525050565b5f60a0820190506116515f830188610d40565b61165e6020830187610d40565b61166b60408301866111c2565b818103606083015261167d81856115c0565b905061168c608083018461162f565b969550505050505056fea2646970667358221220682ca17c1f998ee8d52c46b9f5ce8a04c09288411fca1b5c4ebfc3357a8ea1d464736f6c63430008210033","linkReferences":{}},"methodIdentifiers":{"ADDRESSES_PROVIDER()":"0542975c","OWNER()":"117803e3","POOL()":"7535d246","SWAP_ROUTER()":"c6005893","executeLiquidation(address,uint256,address,address,uint24)":"b6a4f53b","executeOperation(address,uint256,uint256,address,bytes)":"1b11d0ff","rescue(address)":"839006f2","rescueETH()":"20800a00"},"id":28}