{"abi":[{"type":"function","name":"verifierType","inputs":[],"outputs":[{"name":"","type":"string","internalType":"string"}],"stateMutability":"pure"},{"type":"function","name":"verifyProof","inputs":[{"name":"proof","type":"uint256[8]","internalType":"uint256[8]"},{"name":"publicInputs","type":"uint256[5]","internalType":"uint256[5]"}],"outputs":[{"name":"success","type":"bool","internalType":"bool"}],"stateMutability":"pure"},{"type":"event","name":"ProofVerified","inputs":[{"name":"merkleRoot","type":"uint256","indexed":true,"internalType":"uint256"},{"name":"nullifierHash","type":"uint256","indexed":true,"internalType":"uint256"},{"name":"treeDepth","type":"uint8","indexed":false,"internalType":"uint8"}],"anonymous":false},{"type":"error","name":"InvalidProofElement","inputs":[{"name":"index","type":"uint256","internalType":"uint256"},{"name":"value","type":"uint256","internalType":"uint256"}]},{"type":"error","name":"InvalidPublicInput","inputs":[{"name":"index","type":"uint256","internalType":"uint256"},{"name":"value","type":"uint256","internalType":"uint256"}]}],"bytecode":{"object":"0x6080604052348015600e575f5ffd5b5061037f8061001c5f395ff3fe608060405234801561000f575f5ffd5b5060043610610034575f3560e01c8063170227f7146100385780632a07d99a14610056575b5f5ffd5b610040610086565b60405161004d919061023f565b60405180910390f35b610070600480360381019061006b91906102a9565b6100c3565b60405161007d9190610303565b60405180910390f35b60606040518060400160405280601681526020017f5a45524f5f455850414e53494f4e5f4d4f434b5f563100000000000000000000815250905090565b5f5f5f90505b6008811015610126577f30644e72e131a029b85045b68181585d97816a916871ca8d3c208c16d87cfd478482600881106101065761010561031c565b5b602002013510610119575f9150506101c9565b80806001019150506100c9565b505f5f90505b6004811015610189577f30644e72e131a029b85045b68181585d2833e84879b9709143e1f593f00000018382600581106101695761016861031c565b5b60200201351061017c575f9150506101c9565b808060010191505061012c565b505f8260046005811061019f5761019e61031c565b5b6020020135905060108110806101b55750603281115b156101c3575f9150506101c9565b60019150505b92915050565b5f81519050919050565b5f82825260208201905092915050565b8281835e5f83830152505050565b5f601f19601f8301169050919050565b5f610211826101cf565b61021b81856101d9565b935061022b8185602086016101e9565b610234816101f7565b840191505092915050565b5f6020820190508181035f8301526102578184610207565b905092915050565b5f5ffd5b5f5ffd5b5f8190508260206008028201111561028257610281610263565b5b92915050565b5f819050826020600502820111156102a3576102a2610263565b5b92915050565b5f5f6101a083850312156102c0576102bf61025f565b5b5f6102cd85828601610267565b9250506101006102df85828601610288565b9150509250929050565b5f8115159050919050565b6102fd816102e9565b82525050565b5f6020820190506103165f8301846102f4565b92915050565b7f4e487b71000000000000000000000000000000000000000000000000000000005f52603260045260245ffdfea264697066735822122005dee683116b72be4d6bec52d2c1b44a6bc75c594c94cd5833c398e4c55f615364736f6c63430008210033","linkReferences":{}},"methodIdentifiers":{"verifierType()":"170227f7","verifyProof(uint256[8],uint256[5])":"2a07d99a"},"id":18}