{"abi":[{"type":"constructor","inputs":[{"name":"_priceOracle","type":"address","internalType":"address"}],"stateMutability":"nonpayable"},{"type":"receive","stateMutability":"payable"},{"type":"function","name":"addToWhitelist","inputs":[{"name":"user","type":"address","internalType":"address"}],"outputs":[],"stateMutability":"nonpayable"},{"type":"function","name":"balances","inputs":[{"name":"","type":"address","internalType":"address"}],"outputs":[{"name":"","type":"uint256","internalType":"uint256"}],"stateMutability":"view"},{"type":"function","name":"borrow","inputs":[{"name":"amount","type":"uint256","internalType":"uint256"}],"outputs":[],"stateMutability":"nonpayable"},{"type":"function","name":"deposit","inputs":[],"outputs":[],"stateMutability":"payable"},{"type":"function","name":"emergencyWithdraw","inputs":[],"outputs":[],"stateMutability":"nonpayable"},{"type":"function","name":"getCollateralValue","inputs":[{"name":"user","type":"address","internalType":"address"}],"outputs":[{"name":"","type":"uint256","internalType":"uint256"}],"stateMutability":"view"},{"type":"function","name":"getVaultBalance","inputs":[],"outputs":[{"name":"","type":"uint256","internalType":"uint256"}],"stateMutability":"view"},{"type":"function","name":"isWhitelisted","inputs":[{"name":"user","type":"address","internalType":"address"}],"outputs":[{"name":"","type":"bool","internalType":"bool"}],"stateMutability":"view"},{"type":"function","name":"owner","inputs":[],"outputs":[{"name":"","type":"address","internalType":"address"}],"stateMutability":"view"},{"type":"function","name":"priceOracle","inputs":[],"outputs":[{"name":"","type":"address","internalType":"address"}],"stateMutability":"view"},{"type":"function","name":"secureWithdraw","inputs":[{"name":"amount","type":"uint256","internalType":"uint256"}],"outputs":[],"stateMutability":"nonpayable"},{"type":"function","name":"totalDeposits","inputs":[],"outputs":[{"name":"","type":"uint256","internalType":"uint256"}],"stateMutability":"view"},{"type":"function","name":"transfer","inputs":[{"name":"to","type":"address","internalType":"address"},{"name":"amount","type":"uint256","internalType":"uint256"}],"outputs":[],"stateMutability":"nonpayable"},{"type":"function","name":"whitelist","inputs":[{"name":"","type":"address","internalType":"address"}],"outputs":[{"name":"","type":"bool","internalType":"bool"}],"stateMutability":"view"},{"type":"function","name":"withdraw","inputs":[{"name":"amount","type":"uint256","internalType":"uint256"}],"outputs":[],"stateMutability":"nonpayable"},{"type":"event","name":"Deposit","inputs":[{"name":"user","type":"address","indexed":true,"internalType":"address"},{"name":"amount","type":"uint256","indexed":false,"internalType":"uint256"}],"anonymous":false},{"type":"event","name":"EmergencyWithdrawal","inputs":[{"name":"caller","type":"address","indexed":true,"internalType":"address"},{"name":"amount","type":"uint256","indexed":false,"internalType":"uint256"}],"anonymous":false},{"type":"event","name":"Withdrawal","inputs":[{"name":"user","type":"address","indexed":true,"internalType":"address"},{"name":"amount","type":"uint256","indexed":false,"internalType":"uint256"}],"anonymous":false}],"bytecode":{"object":"0x608060405234801561000f575f5ffd5b506040516116fb3803806116fb83398181016040528101906100319190610169565b3360025f6101000a81548173ffffffffffffffffffffffffffffffffffffffff021916908373ffffffffffffffffffffffffffffffffffffffff1602179055508060035f6101000a81548173ffffffffffffffffffffffffffffffffffffffff021916908373ffffffffffffffffffffffffffffffffffffffff1602179055506001805f3373ffffffffffffffffffffffffffffffffffffffff1673ffffffffffffffffffffffffffffffffffffffff1681526020019081526020015f205f6101000a81548160ff02191690831515021790555050610194565b5f5ffd5b5f73ffffffffffffffffffffffffffffffffffffffff82169050919050565b5f6101388261010f565b9050919050565b6101488161012e565b8114610152575f5ffd5b50565b5f815190506101638161013f565b92915050565b5f6020828403121561017e5761017d61010b565b5b5f61018b84828501610155565b91505092915050565b61155a806101a15f395ff3fe6080604052600436106100eb575f3560e01c806397904e4211610089578063d0e30db011610058578063d0e30db01461036d578063db2e21bc14610377578063e43252d71461038d578063ed12e8ef146103b55761015b565b806397904e42146102a55780639b19251a146102e1578063a9059cbb1461031d578063c5ebeaec146103455761015b565b80632e1a7d4d116100c55780632e1a7d4d146101ed5780633af32abf146102155780637d882097146102515780638da5cb5b1461027b5761015b565b806319058c151461015f5780632630c12f1461018757806327e235e3146101b15761015b565b3661015b57345f5f3373ffffffffffffffffffffffffffffffffffffffff1673ffffffffffffffffffffffffffffffffffffffff1681526020019081526020015f205f82825461013b9190610f19565b925050819055503460045f8282546101539190610f19565b925050819055005b5f5ffd5b34801561016a575f5ffd5b5061018560048036038101906101809190610f7a565b6103df565b005b348015610192575f5ffd5b5061019b610644565b6040516101a89190610fe4565b60405180910390f35b3480156101bc575f5ffd5b506101d760048036038101906101d29190611027565b610669565b6040516101e49190611061565b60405180910390f35b3480156101f8575f5ffd5b50610213600480360381019061020e9190610f7a565b61067d565b005b348015610220575f5ffd5b5061023b60048036038101906102369190611027565b610860565b6040516102489190611094565b60405180910390f35b34801561025c575f5ffd5b506102656108b2565b6040516102729190611061565b60405180910390f35b348015610286575f5ffd5b5061028f6108b8565b60405161029c9190610fe4565b60405180910390f35b3480156102b0575f5ffd5b506102cb60048036038101906102c69190611027565b6108dd565b6040516102d89190611061565b60405180910390f35b3480156102ec575f5ffd5b5061030760048036038101906103029190611027565b6109d2565b6040516103149190611094565b60405180910390f35b348015610328575f5ffd5b50610343600480360381019061033e91906110ad565b6109ef565b005b348015610350575f5ffd5b5061036b60048036038101906103669190610f7a565b610a85565b005b610375610bfc565b005b348015610382575f5ffd5b5061038b610cf8565b005b348015610398575f5ffd5b506103b360048036038101906103ae9190611027565b610df6565b005b3480156103c0575f5ffd5b506103c9610edc565b6040516103d69190611061565b60405180910390f35b60055f9054906101000a900460ff161561042e576040517f08c379a000000000000000000000000000000000000000000000000000000000815260040161042590611145565b60405180910390fd5b600160055f6101000a81548160ff021916908315150217905550805f5f3373ffffffffffffffffffffffffffffffffffffffff1673ffffffffffffffffffffffffffffffffffffffff1681526020019081526020015f205410156104c7576040517f08c379a00000000000000000000000000000000000000000000000000000000081526004016104be906111ad565b60405180910390fd5b805f5f3373ffffffffffffffffffffffffffffffffffffffff1673ffffffffffffffffffffffffffffffffffffffff1681526020019081526020015f205f82825461051291906111cb565b925050819055508060045f82825461052a91906111cb565b925050819055505f3373ffffffffffffffffffffffffffffffffffffffff16826040516105569061122b565b5f6040518083038185875af1925050503d805f8114610590576040519150601f19603f3d011682016040523d82523d5f602084013e610595565b606091505b50509050806105d9576040517f08c379a00000000000000000000000000000000000000000000000000000000081526004016105d090611289565b60405180910390fd5b3373ffffffffffffffffffffffffffffffffffffffff167f7fcf532c15f0a6db0bd6d0e038bea71d30d808c7d98cb3bf7268a95bf5081b658360405161061f9190611061565b60405180910390a2505f60055f6101000a81548160ff02191690831515021790555050565b60035f9054906101000a900473ffffffffffffffffffffffffffffffffffffffff1681565b5f602052805f5260405f205f915090505481565b805f5f3373ffffffffffffffffffffffffffffffffffffffff1673ffffffffffffffffffffffffffffffffffffffff1681526020019081526020015f205410156106fc576040517f08c379a00000000000000000000000000000000000000000000000000000000081526004016106f3906111ad565b60405180910390fd5b5f3373ffffffffffffffffffffffffffffffffffffffff16826040516107219061122b565b5f6040518083038185875af1925050503d805f811461075b576040519150601f19603f3d011682016040523d82523d5f602084013e610760565b606091505b50509050806107a4576040517f08c379a000000000000000000000000000000000000000000000000000000000815260040161079b90611289565b60405180910390fd5b815f5f3373ffffffffffffffffffffffffffffffffffffffff1673ffffffffffffffffffffffffffffffffffffffff1681526020019081526020015f205f8282546107ef91906111cb565b925050819055508160045f82825461080791906111cb565b925050819055503373ffffffffffffffffffffffffffffffffffffffff167f7fcf532c15f0a6db0bd6d0e038bea71d30d808c7d98cb3bf7268a95bf5081b65836040516108549190611061565b60405180910390a25050565b5f60015f8373ffffffffffffffffffffffffffffffffffffffff1673ffffffffffffffffffffffffffffffffffffffff1681526020019081526020015f205f9054906101000a900460ff169050919050565b60045481565b60025f9054906101000a900473ffffffffffffffffffffffffffffffffffffffff1681565b5f5f60035f9054906101000a900473ffffffffffffffffffffffffffffffffffffffff1673ffffffffffffffffffffffffffffffffffffffff166398d5fdca6040518163ffffffff1660e01b8152600401602060405180830381865afa158015610949573d5f5f3e3d5ffd5b505050506040513d601f19601f8201168201806040525081019061096d91906112bb565b9050670de0b6b3a7640000815f5f8673ffffffffffffffffffffffffffffffffffffffff1673ffffffffffffffffffffffffffffffffffffffff1681526020019081526020015f20546109c091906112e6565b6109ca9190611354565b915050919050565b6001602052805f5260405f205f915054906101000a900460ff1681565b805f5f3373ffffffffffffffffffffffffffffffffffffffff1673ffffffffffffffffffffffffffffffffffffffff1681526020019081526020015f205f8282540392505081905550805f5f8473ffffffffffffffffffffffffffffffffffffffff1673ffffffffffffffffffffffffffffffffffffffff1681526020019081526020015f205f82825401925050819055505050565b5f3073ffffffffffffffffffffffffffffffffffffffff166397904e42336040518263ffffffff1660e01b8152600401610abf9190610fe4565b602060405180830381865afa158015610ada573d5f5f3e3d5ffd5b505050506040513d601f19601f82011682018060405250810190610afe91906112bb565b9050600282610b0d91906112e6565b811015610b4f576040517f08c379a0000000000000000000000000000000000000000000000000000000008152600401610b46906113ce565b60405180910390fd5b5f3373ffffffffffffffffffffffffffffffffffffffff1683604051610b749061122b565b5f6040518083038185875af1925050503d805f8114610bae576040519150601f19603f3d011682016040523d82523d5f602084013e610bb3565b606091505b5050905080610bf7576040517f08c379a0000000000000000000000000000000000000000000000000000000008152600401610bee90611436565b60405180910390fd5b505050565b5f3411610c3e576040517f08c379a0000000000000000000000000000000000000000000000000000000008152600401610c359061149e565b60405180910390fd5b345f5f3373ffffffffffffffffffffffffffffffffffffffff1673ffffffffffffffffffffffffffffffffffffffff1681526020019081526020015f205f828254610c899190610f19565b925050819055503460045f828254610ca19190610f19565b925050819055503373ffffffffffffffffffffffffffffffffffffffff167fe1fffcc4923d04b559f4d29a8bfc6cda04eb5b0d3c460751c2402c5c5cc9109c34604051610cee9190611061565b60405180910390a2565b5f4790505f3373ffffffffffffffffffffffffffffffffffffffff1682604051610d219061122b565b5f6040518083038185875af1925050503d805f8114610d5b576040519150601f19603f3d011682016040523d82523d5f602084013e610d60565b606091505b5050905080610da4576040517f08c379a0000000000000000000000000000000000000000000000000000000008152600401610d9b90611289565b60405180910390fd5b3373ffffffffffffffffffffffffffffffffffffffff167f23d6711a1d031134a36921253c75aa59e967d38e369ac625992824315e204f2083604051610dea9190611061565b60405180910390a25050565b60025f9054906101000a900473ffffffffffffffffffffffffffffffffffffffff1673ffffffffffffffffffffffffffffffffffffffff163373ffffffffffffffffffffffffffffffffffffffff1614610e85576040517f08c379a0000000000000000000000000000000000000000000000000000000008152600401610e7c90611506565b60405180910390fd5b6001805f8373ffffffffffffffffffffffffffffffffffffffff1673ffffffffffffffffffffffffffffffffffffffff1681526020019081526020015f205f6101000a81548160ff02191690831515021790555050565b5f47905090565b5f819050919050565b7f4e487b71000000000000000000000000000000000000000000000000000000005f52601160045260245ffd5b5f610f2382610ee3565b9150610f2e83610ee3565b9250828201905080821115610f4657610f45610eec565b5b92915050565b5f5ffd5b610f5981610ee3565b8114610f63575f5ffd5b50565b5f81359050610f7481610f50565b92915050565b5f60208284031215610f8f57610f8e610f4c565b5b5f610f9c84828501610f66565b91505092915050565b5f73ffffffffffffffffffffffffffffffffffffffff82169050919050565b5f610fce82610fa5565b9050919050565b610fde81610fc4565b82525050565b5f602082019050610ff75f830184610fd5565b92915050565b61100681610fc4565b8114611010575f5ffd5b50565b5f8135905061102181610ffd565b92915050565b5f6020828403121561103c5761103b610f4c565b5b5f61104984828501611013565b91505092915050565b61105b81610ee3565b82525050565b5f6020820190506110745f830184611052565b92915050565b5f8115159050919050565b61108e8161107a565b82525050565b5f6020820190506110a75f830184611085565b92915050565b5f5f604083850312156110c3576110c2610f4c565b5b5f6110d085828601611013565b92505060206110e185828601610f66565b9150509250929050565b5f82825260208201905092915050565b7f5265656e7472616e7400000000000000000000000000000000000000000000005f82015250565b5f61112f6009836110eb565b915061113a826110fb565b602082019050919050565b5f6020820190508181035f83015261115c81611123565b9050919050565b7f496e73756666696369656e742062616c616e63650000000000000000000000005f82015250565b5f6111976014836110eb565b91506111a282611163565b602082019050919050565b5f6020820190508181035f8301526111c48161118b565b9050919050565b5f6111d582610ee3565b91506111e083610ee3565b92508282039050818111156111f8576111f7610eec565b5b92915050565b5f81905092915050565b50565b5f6112165f836111fe565b915061122182611208565b5f82019050919050565b5f6112358261120b565b9150819050919050565b7f5472616e73666572206661696c656400000000000000000000000000000000005f82015250565b5f611273600f836110eb565b915061127e8261123f565b602082019050919050565b5f6020820190508181035f8301526112a081611267565b9050919050565b5f815190506112b581610f50565b92915050565b5f602082840312156112d0576112cf610f4c565b5b5f6112dd848285016112a7565b91505092915050565b5f6112f082610ee3565b91506112fb83610ee3565b925082820261130981610ee3565b915082820484148315176113205761131f610eec565b5b5092915050565b7f4e487b71000000000000000000000000000000000000000000000000000000005f52601260045260245ffd5b5f61135e82610ee3565b915061136983610ee3565b92508261137957611378611327565b5b828204905092915050565b7f496e73756666696369656e7420636f6c6c61746572616c0000000000000000005f82015250565b5f6113b86017836110eb565b91506113c382611384565b602082019050919050565b5f6020820190508181035f8301526113e5816113ac565b9050919050565b7f426f72726f77207472616e73666572206661696c6564000000000000000000005f82015250565b5f6114206016836110eb565b915061142b826113ec565b602082019050919050565b5f6020820190508181035f83015261144d81611414565b9050919050565b7f4d757374206465706f73697420736f6d657468696e67000000000000000000005f82015250565b5f6114886016836110eb565b915061149382611454565b602082019050919050565b5f6020820190508181035f8301526114b58161147c565b9050919050565b7f4e6f74206f776e657200000000000000000000000000000000000000000000005f82015250565b5f6114f06009836110eb565b91506114fb826114bc565b602082019050919050565b5f6020820190508181035f83015261151d816114e4565b905091905056fea2646970667358221220e8012ed9ef6c41da947212df316be79f02a544468e6bbfb9e3d758c4f928871d64736f6c63430008210033","linkReferences":{}},"methodIdentifiers":{"addToWhitelist(address)":"e43252d7","balances(address)":"27e235e3","borrow(uint256)":"c5ebeaec","deposit()":"d0e30db0","emergencyWithdraw()":"db2e21bc","getCollateralValue(address)":"97904e42","getVaultBalance()":"ed12e8ef","isWhitelisted(address)":"3af32abf","owner()":"8da5cb5b","priceOracle()":"2630c12f","secureWithdraw(uint256)":"19058c15","totalDeposits()":"7d882097","transfer(address,uint256)":"a9059cbb","whitelist(address)":"9b19251a","withdraw(uint256)":"2e1a7d4d"},"id":0}