{"abi":[{"type":"constructor","inputs":[],"stateMutability":"nonpayable"},{"type":"function","name":"GROTH16_MAX_DEPTH","inputs":[],"outputs":[{"name":"","type":"uint8","internalType":"uint8"}],"stateMutability":"view"},{"type":"function","name":"MIN_DEPTH","inputs":[],"outputs":[{"name":"","type":"uint8","internalType":"uint8"}],"stateMutability":"view"},{"type":"function","name":"ZERO_EXPANSION_MAX_DEPTH","inputs":[],"outputs":[{"name":"","type":"uint8","internalType":"uint8"}],"stateMutability":"view"},{"type":"function","name":"admin","inputs":[],"outputs":[{"name":"","type":"address","internalType":"address"}],"stateMutability":"view"},{"type":"function","name":"enableZeroExpansion","inputs":[],"outputs":[],"stateMutability":"nonpayable"},{"type":"function","name":"getProverMemory","inputs":[{"name":"depth","type":"uint8","internalType":"uint8"}],"outputs":[{"name":"groth16Memory","type":"uint256","internalType":"uint256"},{"name":"zeroExpansionMemory","type":"uint256","internalType":"uint256"}],"stateMutability":"pure"},{"type":"function","name":"maxDepth","inputs":[],"outputs":[{"name":"","type":"uint8","internalType":"uint8"}],"stateMutability":"view"},{"type":"function","name":"maxMembers","inputs":[{"name":"depth","type":"uint8","internalType":"uint8"}],"outputs":[{"name":"","type":"uint256","internalType":"uint256"}],"stateMutability":"pure"},{"type":"function","name":"validateDepth","inputs":[{"name":"depth","type":"uint8","internalType":"uint8"}],"outputs":[],"stateMutability":"view"},{"type":"function","name":"zeroExpansionEnabled","inputs":[],"outputs":[{"name":"","type":"bool","internalType":"bool"}],"stateMutability":"view"},{"type":"event","name":"MaxDepthUpdated","inputs":[{"name":"newMaxDepth","type":"uint8","indexed":false,"internalType":"uint8"}],"anonymous":false},{"type":"event","name":"ZeroExpansionEnabled","inputs":[{"name":"newMaxDepth","type":"uint8","indexed":false,"internalType":"uint8"}],"anonymous":false},{"type":"error","name":"DepthTooHighForGroth16","inputs":[]},{"type":"error","name":"InvalidDepth","inputs":[{"name":"depth","type":"uint8","internalType":"uint8"},{"name":"maxAllowed","type":"uint8","internalType":"uint8"}]},{"type":"error","name":"NotAdmin","inputs":[]}],"bytecode":{"object":"0x6080604052348015600e575f5ffd5b50335f60026101000a81548173ffffffffffffffffffffffffffffffffffffffff021916908373ffffffffffffffffffffffffffffffffffffffff160217905550601e5f5f6101000a81548160ff021916908360ff1602179055505f5f60016101000a81548160ff0219169083151502179055506106ed8061008f5f395ff3fe608060405234801561000f575f5ffd5b506004361061009c575f3560e01c8063b51f795b11610064578063b51f795b14610134578063c0880b4514610165578063c8e465ab14610181578063ce9170ad1461019f578063f851a440146101bd5761009c565b80630333627e146100a05780630380b30e146100aa5780630c57be89146100da57806311e89c96146100f8578063143117e114610116575b5f5ffd5b6100a86101db565b005b6100c460048036038101906100bf91906104ec565b6102cf565b6040516100d1919061052f565b60405180910390f35b6100e2610314565b6040516100ef9190610562565b60405180910390f35b610100610326565b60405161010d919061058a565b60405180910390f35b61011e61032b565b60405161012b919061058a565b60405180910390f35b61014e600480360381019061014991906104ec565b61033c565b60405161015c9291906105a3565b60405180910390f35b61017f600480360381019061017a91906104ec565b6103af565b005b610189610483565b604051610196919061058a565b60405180910390f35b6101a7610488565b6040516101b4919061058a565b60405180910390f35b6101c561048d565b6040516101d29190610609565b60405180910390f35b5f60029054906101000a900473ffffffffffffffffffffffffffffffffffffffff1673ffffffffffffffffffffffffffffffffffffffff163373ffffffffffffffffffffffffffffffffffffffff1614610261576040517f7bfa4b9f00000000000000000000000000000000000000000000000000000000815260040160405180910390fd5b60015f60016101000a81548160ff02191690831515021790555060325f5f6101000a81548160ff021916908360ff1602179055507fa20b337ddcc14522c494922eb6d3e15fe2159859c606ad07713d1ae97237919a60326040516102c5919061058a565b60405180910390a1565b5f603f8260ff161115610304577fffffffffffffffffffffffffffffffffffffffffffffffffffffffffffffffff905061030f565b8160ff166001901b90505b919050565b5f60019054906101000a900460ff1681565b603281565b5f5f9054906101000a900460ff1681565b5f5f60288360ff1611610367578260ff166001901b9150602082610360919061064f565b915061038b565b7fffffffffffffffffffffffffffffffffffffffffffffffffffffffffffffffff91505b61040060108460ff1661039e919061064f565b6103a8919061064f565b9050915091565b601060ff168160ff1610806103d657505f5f9054906101000a900460ff1660ff168160ff16115b1561042757805f5f9054906101000a900460ff166040517fffd5b40000000000000000000000000000000000000000000000000000000000815260040161041e929190610690565b60405180910390fd5b5f60019054906101000a900460ff161580156104495750601e60ff168160ff16115b15610480576040517f8f12d5e900000000000000000000000000000000000000000000000000000000815260040160405180910390fd5b50565b601081565b601e81565b5f60029054906101000a900473ffffffffffffffffffffffffffffffffffffffff1681565b5f5ffd5b5f60ff82169050919050565b6104cb816104b6565b81146104d5575f5ffd5b50565b5f813590506104e6816104c2565b92915050565b5f60208284031215610501576105006104b2565b5b5f61050e848285016104d8565b91505092915050565b5f819050919050565b61052981610517565b82525050565b5f6020820190506105425f830184610520565b92915050565b5f8115159050919050565b61055c81610548565b82525050565b5f6020820190506105755f830184610553565b92915050565b610584816104b6565b82525050565b5f60208201905061059d5f83018461057b565b92915050565b5f6040820190506105b65f830185610520565b6105c36020830184610520565b9392505050565b5f73ffffffffffffffffffffffffffffffffffffffff82169050919050565b5f6105f3826105ca565b9050919050565b610603816105e9565b82525050565b5f60208201905061061c5f8301846105fa565b92915050565b7f4e487b71000000000000000000000000000000000000000000000000000000005f52601160045260245ffd5b5f61065982610517565b915061066483610517565b925082820261067281610517565b9150828204841483151761068957610688610622565b5b5092915050565b5f6040820190506106a35f83018561057b565b6106b0602083018461057b565b939250505056fea2646970667358221220eb3c60c9786721d8a37932b3cc00c99c534d735b838c0b9ad304fcc981b2845664736f6c63430008210033","linkReferences":{}},"methodIdentifiers":{"GROTH16_MAX_DEPTH()":"ce9170ad","MIN_DEPTH()":"c8e465ab","ZERO_EXPANSION_MAX_DEPTH()":"11e89c96","admin()":"f851a440","enableZeroExpansion()":"0333627e","getProverMemory(uint8)":"b51f795b","maxDepth()":"143117e1","maxMembers(uint8)":"0380b30e","validateDepth(uint8)":"c0880b45","zeroExpansionEnabled()":"0c57be89"},"id":19}