{"abi":[{"type":"constructor","inputs":[{"name":"_groth16Verifier","type":"address","internalType":"address"}],"stateMutability":"nonpayable"},{"type":"function","name":"WORLD_ID_GROUP","inputs":[],"outputs":[{"name":"","type":"uint256","internalType":"uint256"}],"stateMutability":"view"},{"type":"function","name":"getTheoreticalLimits","inputs":[],"outputs":[{"name":"groth16MaxUsers","type":"uint256","internalType":"uint256"},{"name":"zeroExpansionMaxUsers","type":"uint256","internalType":"uint256"},{"name":"groth16ProverMemoryGB","type":"uint256","internalType":"uint256"},{"name":"zeroExpansionProverMemoryKB","type":"uint256","internalType":"uint256"}],"stateMutability":"view"},{"type":"function","name":"groth16Verifier","inputs":[],"outputs":[{"name":"","type":"address","internalType":"contract IGroth16Verifier"}],"stateMutability":"view"},{"type":"function","name":"groupDepth","inputs":[{"name":"","type":"uint256","internalType":"uint256"}],"outputs":[{"name":"","type":"uint8","internalType":"uint8"}],"stateMutability":"view"},{"type":"function","name":"latestRoot","inputs":[{"name":"","type":"uint256","internalType":"uint256"}],"outputs":[{"name":"","type":"uint256","internalType":"uint256"}],"stateMutability":"view"},{"type":"function","name":"rootHistory","inputs":[{"name":"","type":"uint256","internalType":"uint256"},{"name":"","type":"uint256","internalType":"uint256"}],"outputs":[{"name":"","type":"bool","internalType":"bool"}],"stateMutability":"view"},{"type":"function","name":"updateRoot","inputs":[{"name":"groupId","type":"uint256","internalType":"uint256"},{"name":"newRoot","type":"uint256","internalType":"uint256"}],"outputs":[],"stateMutability":"nonpayable"},{"type":"function","name":"validator","inputs":[],"outputs":[{"name":"","type":"address","internalType":"contract SemaphoreTreeDepthValidator"}],"stateMutability":"view"},{"type":"function","name":"verifier","inputs":[],"outputs":[{"name":"","type":"address","internalType":"contract ZeroExpansionWorldcoinVerifier"}],"stateMutability":"view"},{"type":"function","name":"verifyWorldIDProof","inputs":[{"name":"root","type":"uint256","internalType":"uint256"},{"name":"groupId","type":"uint256","internalType":"uint256"},{"name":"signalHash","type":"uint256","internalType":"uint256"},{"name":"nullifierHash","type":"uint256","internalType":"uint256"},{"name":"externalNullifier","type":"uint256","internalType":"uint256"},{"name":"proof","type":"uint256[8]","internalType":"uint256[8]"}],"outputs":[{"name":"","type":"bool","internalType":"bool"}],"stateMutability":"view"},{"type":"event","name":"GroupCreated","inputs":[{"name":"groupId","type":"uint256","indexed":true,"internalType":"uint256"},{"name":"depth","type":"uint8","indexed":false,"internalType":"uint8"}],"anonymous":false},{"type":"event","name":"RootUpdated","inputs":[{"name":"groupId","type":"uint256","indexed":true,"internalType":"uint256"},{"name":"newRoot","type":"uint256","indexed":false,"internalType":"uint256"}],"anonymous":false},{"type":"error","name":"InvalidGroup","inputs":[]},{"type":"error","name":"InvalidRoot","inputs":[]},{"type":"error","name":"ProofVerificationFailed","inputs":[]}],"bytecode":{"object":"0x60e060405234801561000f575f5ffd5b50604051611f8a380380611f8a83398181016040528101906100319190610267565b5f60405161003e906101ef565b604051809103905ff080158015610057573d5f5f3e3d5ffd5b5090508073ffffffffffffffffffffffffffffffffffffffff1660a08173ffffffffffffffffffffffffffffffffffffffff16815250508173ffffffffffffffffffffffffffffffffffffffff1660c08173ffffffffffffffffffffffffffffffffffffffff168152505080826040516100d0906101fc565b6100db9291906102a1565b604051809103905ff0801580156100f4573d5f5f3e3d5ffd5b5073ffffffffffffffffffffffffffffffffffffffff1660808173ffffffffffffffffffffffffffffffffffffffff16815250508073ffffffffffffffffffffffffffffffffffffffff16630333627e6040518163ffffffff1660e01b81526004015f604051808303815f87803b15801561016d575f5ffd5b505af115801561017f573d5f5f3e3d5ffd5b50505050603260025f600181526020019081526020015f205f6101000a81548160ff021916908360ff16021790555060017f1ec5c425d8e3b23c6847c38f4e5623c0d003d7619a4692572b34d60df453a5fc60326040516101e09190610316565b60405180910390a2505061032f565b61077c80610cbc83390190565b610b528061143883390190565b5f5ffd5b5f73ffffffffffffffffffffffffffffffffffffffff82169050919050565b5f6102368261020d565b9050919050565b6102468161022c565b8114610250575f5ffd5b50565b5f815190506102618161023d565b92915050565b5f6020828403121561027c5761027b610209565b5b5f61028984828501610253565b91505092915050565b61029b8161022c565b82525050565b5f6040820190506102b45f830185610292565b6102c16020830184610292565b9392505050565b5f819050919050565b5f60ff82169050919050565b5f819050919050565b5f6103006102fb6102f6846102c8565b6102dd565b6102d1565b9050919050565b610310816102e6565b82525050565b5f6020820190506103295f830184610307565b92915050565b60805160a05160c05161095c6103605f395f61022b01525f61032501525f818161024f015261044f015261095c5ff3fe608060405234801561000f575f5ffd5b506004361061009c575f3560e01c80633a5381b5116100645780633a5381b5146101585780635924f056146101765780635aad5b35146101a6578063c2661118146101c4578063fc376d76146101e55761009c565b80630b4a5944146100a057806319c813be146100d05780632b7ac3f3146100ee5780632e8a2d3f1461010c5780633895330514610128575b5f5ffd5b6100ba60048036038101906100b59190610537565b610215565b6040516100c79190610571565b60405180910390f35b6100d8610229565b6040516100e59190610604565b60405180910390f35b6100f661024d565b604051610103919061063d565b60405180910390f35b61012660048036038101906101219190610656565b610271565b005b610142600480360381019061013d9190610656565b6102f9565b60405161014f91906106ae565b60405180910390f35b610160610323565b60405161016d91906106e7565b60405180910390f35b610190600480360381019061018b9190610537565b610347565b60405161019d919061071b565b60405180910390f35b6101ae610364565b6040516101bb9190610571565b60405180910390f35b6101cc610369565b6040516101dc9493929190610734565b60405180910390f35b6101ff60048036038101906101fa919061079c565b61038d565b60405161020c91906106ae565b60405180910390f35b5f602052805f5260405f205f915090505481565b7f000000000000000000000000000000000000000000000000000000000000000081565b7f000000000000000000000000000000000000000000000000000000000000000081565b805f5f8481526020019081526020015f20819055506001805f8481526020019081526020015f205f8381526020019081526020015f205f6101000a81548160ff021916908315150217905550817f8a91c9185da93bfae7356c1a8ddd6e45c0fa5dd3e5a65ab468854bb3592f1183826040516102ed9190610571565b60405180910390a25050565b6001602052815f5260405f20602052805f5260405f205f915091509054906101000a900460ff1681565b7f000000000000000000000000000000000000000000000000000000000000000081565b6002602052805f5260405f205f915054906101000a900460ff1681565b600181565b5f5f5f5f633b9aca00935066040000000000009250602091506102dc905090919293565b5f600186146103c8576040517fdb140e4000000000000000000000000000000000000000000000000000000000815260040160405180910390fd5b60015f8781526020019081526020015f205f8881526020019081526020015f205f9054906101000a900460ff1661042b576040517f504570e300000000000000000000000000000000000000000000000000000000815260040160405180910390fd5b5f60025f8881526020019081526020015f205f9054906101000a900460ff1690505f7f000000000000000000000000000000000000000000000000000000000000000073ffffffffffffffffffffffffffffffffffffffff16639aca8f2a8a888a8989886040518763ffffffff1660e01b81526004016104b096959493929190610870565b602060405180830381865afa1580156104cb573d5f5f3e3d5ffd5b505050506040513d601f19601f820116820180604052508101906104ef91906108fb565b905080925050509695505050505050565b5f5ffd5b5f819050919050565b61051681610504565b8114610520575f5ffd5b50565b5f813590506105318161050d565b92915050565b5f6020828403121561054c5761054b610500565b5b5f61055984828501610523565b91505092915050565b61056b81610504565b82525050565b5f6020820190506105845f830184610562565b92915050565b5f73ffffffffffffffffffffffffffffffffffffffff82169050919050565b5f819050919050565b5f6105cc6105c76105c28461058a565b6105a9565b61058a565b9050919050565b5f6105dd826105b2565b9050919050565b5f6105ee826105d3565b9050919050565b6105fe816105e4565b82525050565b5f6020820190506106175f8301846105f5565b92915050565b5f610627826105d3565b9050919050565b6106378161061d565b82525050565b5f6020820190506106505f83018461062e565b92915050565b5f5f6040838503121561066c5761066b610500565b5b5f61067985828601610523565b925050602061068a85828601610523565b9150509250929050565b5f8115159050919050565b6106a881610694565b82525050565b5f6020820190506106c15f83018461069f565b92915050565b5f6106d1826105d3565b9050919050565b6106e1816106c7565b82525050565b5f6020820190506106fa5f8301846106d8565b92915050565b5f60ff82169050919050565b61071581610700565b82525050565b5f60208201905061072e5f83018461070c565b92915050565b5f6080820190506107475f830187610562565b6107546020830186610562565b6107616040830185610562565b61076e6060830184610562565b95945050505050565b5f5ffd5b5f8190508260206008028201111561079657610795610777565b5b92915050565b5f5f5f5f5f5f6101a087890312156107b7576107b6610500565b5b5f6107c489828a01610523565b96505060206107d589828a01610523565b95505060406107e689828a01610523565b94505060606107f789828a01610523565b935050608061080889828a01610523565b92505060a061081989828a0161077b565b9150509295509295509295565b82818337505050565b61083c6101008383610826565b5050565b5f61085a61085561085084610700565b6105a9565b610504565b9050919050565b61086a81610840565b82525050565b5f6101a0820190506108845f830189610562565b6108916020830188610562565b61089e6040830187610562565b6108ab6060830186610562565b6108b8608083018561082f565b6108c6610180830184610861565b979650505050505050565b6108da81610694565b81146108e4575f5ffd5b50565b5f815190506108f5816108d1565b92915050565b5f602082840312156109105761090f610500565b5b5f61091d848285016108e7565b9150509291505056fea264697066735822122057e4a6bd12869069bd8dece9c8992685d62ea61529d697b874de8ce5350fae8864736f6c634300082100336080604052348015600e575f5ffd5b50335f60026101000a81548173ffffffffffffffffffffffffffffffffffffffff021916908373ffffffffffffffffffffffffffffffffffffffff160217905550601e5f5f6101000a81548160ff021916908360ff1602179055505f5f60016101000a81548160ff0219169083151502179055506106ed8061008f5f395ff3fe608060405234801561000f575f5ffd5b506004361061009c575f3560e01c8063b51f795b11610064578063b51f795b14610134578063c0880b4514610165578063c8e465ab14610181578063ce9170ad1461019f578063f851a440146101bd5761009c565b80630333627e146100a05780630380b30e146100aa5780630c57be89146100da57806311e89c96146100f8578063143117e114610116575b5f5ffd5b6100a86101db565b005b6100c460048036038101906100bf91906104ec565b6102cf565b6040516100d1919061052f565b60405180910390f35b6100e2610314565b6040516100ef9190610562565b60405180910390f35b610100610326565b60405161010d919061058a565b60405180910390f35b61011e61032b565b60405161012b919061058a565b60405180910390f35b61014e600480360381019061014991906104ec565b61033c565b60405161015c9291906105a3565b60405180910390f35b61017f600480360381019061017a91906104ec565b6103af565b005b610189610483565b604051610196919061058a565b60405180910390f35b6101a7610488565b6040516101b4919061058a565b60405180910390f35b6101c561048d565b6040516101d29190610609565b60405180910390f35b5f60029054906101000a900473ffffffffffffffffffffffffffffffffffffffff1673ffffffffffffffffffffffffffffffffffffffff163373ffffffffffffffffffffffffffffffffffffffff1614610261576040517f7bfa4b9f00000000000000000000000000000000000000000000000000000000815260040160405180910390fd5b60015f60016101000a81548160ff02191690831515021790555060325f5f6101000a81548160ff021916908360ff1602179055507fa20b337ddcc14522c494922eb6d3e15fe2159859c606ad07713d1ae97237919a60326040516102c5919061058a565b60405180910390a1565b5f603f8260ff161115610304577fffffffffffffffffffffffffffffffffffffffffffffffffffffffffffffffff905061030f565b8160ff166001901b90505b919050565b5f60019054906101000a900460ff1681565b603281565b5f5f9054906101000a900460ff1681565b5f5f60288360ff1611610367578260ff166001901b9150602082610360919061064f565b915061038b565b7fffffffffffffffffffffffffffffffffffffffffffffffffffffffffffffffff91505b61040060108460ff1661039e919061064f565b6103a8919061064f565b9050915091565b601060ff168160ff1610806103d657505f5f9054906101000a900460ff1660ff168160ff16115b1561042757805f5f9054906101000a900460ff166040517fffd5b40000000000000000000000000000000000000000000000000000000000815260040161041e929190610690565b60405180910390fd5b5f60019054906101000a900460ff161580156104495750601e60ff168160ff16115b15610480576040517f8f12d5e900000000000000000000000000000000000000000000000000000000815260040160405180910390fd5b50565b601081565b601e81565b5f60029054906101000a900473ffffffffffffffffffffffffffffffffffffffff1681565b5f5ffd5b5f60ff82169050919050565b6104cb816104b6565b81146104d5575f5ffd5b50565b5f813590506104e6816104c2565b92915050565b5f60208284031215610501576105006104b2565b5b5f61050e848285016104d8565b91505092915050565b5f819050919050565b61052981610517565b82525050565b5f6020820190506105425f830184610520565b92915050565b5f8115159050919050565b61055c81610548565b82525050565b5f6020820190506105755f830184610553565b92915050565b610584816104b6565b82525050565b5f60208201905061059d5f83018461057b565b92915050565b5f6040820190506105b65f830185610520565b6105c36020830184610520565b9392505050565b5f73ffffffffffffffffffffffffffffffffffffffff82169050919050565b5f6105f3826105ca565b9050919050565b610603816105e9565b82525050565b5f60208201905061061c5f8301846105fa565b92915050565b7f4e487b71000000000000000000000000000000000000000000000000000000005f52601160045260245ffd5b5f61065982610517565b915061066483610517565b925082820261067281610517565b9150828204841483151761068957610688610622565b5b5092915050565b5f6040820190506106a35f83018561057b565b6106b0602083018461057b565b939250505056fea2646970667358221220eb3c60c9786721d8a37932b3cc00c99c534d735b838c0b9ad304fcc981b2845664736f6c6343000821003360c060405234801561000f575f5ffd5b50604051610b52380380610b52833981810160405281019061003191906100fe565b8173ffffffffffffffffffffffffffffffffffffffff1660808173ffffffffffffffffffffffffffffffffffffffff16815250508073ffffffffffffffffffffffffffffffffffffffff1660a08173ffffffffffffffffffffffffffffffffffffffff1681525050505061013c565b5f5ffd5b5f73ffffffffffffffffffffffffffffffffffffffff82169050919050565b5f6100cd826100a4565b9050919050565b6100dd816100c3565b81146100e7575f5ffd5b50565b5f815190506100f8816100d4565b92915050565b5f5f60408385031215610114576101136100a0565b5b5f610121858286016100ea565b9250506020610132858286016100ea565b9150509250929050565b60805160a0516109e761016b5f395f818161012701526102d101525f818161014b015261018c01526109e75ff3fe608060405234801561000f575f5ffd5b5060043610610055575f3560e01c806319c813be146100595780633a5381b51461007757806379f95ee9146100955780639aca8f2a146100c5578063d52d6f90146100f5575b5f5ffd5b610061610125565b60405161006e9190610578565b60405180910390f35b61007f610149565b60405161008c91906105b1565b60405180910390f35b6100af60048036038101906100aa9190610601565b61016d565b6040516100bc9190610646565b60405180910390f35b6100df60048036038101906100da9190610684565b610189565b6040516100ec9190610646565b60405180910390f35b61010f600480360381019061010a9190610684565b61037b565b60405161011c9190610646565b60405180910390f35b7f000000000000000000000000000000000000000000000000000000000000000081565b7f000000000000000000000000000000000000000000000000000000000000000081565b5f602052805f5260405f205f915054906101000a900460ff1681565b5f7f000000000000000000000000000000000000000000000000000000000000000073ffffffffffffffffffffffffffffffffffffffff1663c0880b45836040518263ffffffff1660e01b81526004016101e3919061072a565b5f6040518083038186803b1580156101f9575f5ffd5b505afa15801561020b573d5f5f3e3d5ffd5b505050505f835f6008811061022357610222610743565b5b602002013514801561024c57505f8360016008811061024557610244610743565b5b6020020135145b15610259575f9050610371565b5f8360066008811061026e5761026d610743565b5b602002013514801561029757505f836007600881106102905761028f610743565b5b6020020135145b156102a4575f9050610371565b5f6040518060a001604052808981526020018881526020018781526020018681526020018481525090505f7f000000000000000000000000000000000000000000000000000000000000000073ffffffffffffffffffffffffffffffffffffffff16632a07d99a86846040518363ffffffff1660e01b815260040161032a92919061082f565b602060405180830381865afa158015610345573d5f5f3e3d5ffd5b505050506040513d601f19601f820116820180604052508101906103699190610882565b905080925050505b9695505050505050565b5f5f5f8781526020019081526020015f205f9054906101000a900460ff16156103d0576040517fcad2ae0200000000000000000000000000000000000000000000000000000000815260040160405180910390fd5b5f3073ffffffffffffffffffffffffffffffffffffffff16639aca8f2a8989898989896040518763ffffffff1660e01b8152600401610414969594939291906108bc565b602060405180830381865afa15801561042f573d5f5f3e3d5ffd5b505050506040513d601f19601f820116820180604052508101906104539190610882565b90508061048c576040517fd611c31800000000000000000000000000000000000000000000000000000000815260040160405180910390fd5b60015f5f8981526020019081526020015f205f6101000a81548160ff02191690831515021790555086887f2e50865678927b52a4ded4c814a9650b63c0e7204ba5892bca3e5c462a2ddc6688866040516104e7929190610977565b60405180910390a360019150509695505050505050565b5f73ffffffffffffffffffffffffffffffffffffffff82169050919050565b5f819050919050565b5f61054061053b610536846104fe565b61051d565b6104fe565b9050919050565b5f61055182610526565b9050919050565b5f61056282610547565b9050919050565b61057281610558565b82525050565b5f60208201905061058b5f830184610569565b92915050565b5f61059b82610547565b9050919050565b6105ab81610591565b82525050565b5f6020820190506105c45f8301846105a2565b92915050565b5f5ffd5b5f819050919050565b6105e0816105ce565b81146105ea575f5ffd5b50565b5f813590506105fb816105d7565b92915050565b5f60208284031215610616576106156105ca565b5b5f610623848285016105ed565b91505092915050565b5f8115159050919050565b6106408161062c565b82525050565b5f6020820190506106595f830184610637565b92915050565b5f5ffd5b5f8190508260206008028201111561067e5761067d61065f565b5b92915050565b5f5f5f5f5f5f6101a0878903121561069f5761069e6105ca565b5b5f6106ac89828a016105ed565b96505060206106bd89828a016105ed565b95505060406106ce89828a016105ed565b94505060606106df89828a016105ed565b93505060806106f089828a01610663565b92505061018061070289828a016105ed565b9150509295509295509295565b5f60ff82169050919050565b6107248161070f565b82525050565b5f60208201905061073d5f83018461071b565b92915050565b7f4e487b71000000000000000000000000000000000000000000000000000000005f52603260045260245ffd5b82818337505050565b6107866101008383610770565b5050565b5f60059050919050565b5f81905092915050565b5f819050919050565b6107b0816105ce565b82525050565b5f6107c183836107a7565b60208301905092915050565b5f602082019050919050565b6107e28161078a565b6107ec8184610794565b92506107f78261079e565b805f5b8381101561082757815161080e87826107b6565b9650610819836107cd565b9250506001810190506107fa565b505050505050565b5f6101a0820190506108435f830185610779565b6108516101008301846107d9565b9392505050565b6108618161062c565b811461086b575f5ffd5b50565b5f8151905061087c81610858565b92915050565b5f60208284031215610897576108966105ca565b5b5f6108a48482850161086e565b91505092915050565b6108b6816105ce565b82525050565b5f6101a0820190506108d05f8301896108ad565b6108dd60208301886108ad565b6108ea60408301876108ad565b6108f760608301866108ad565b6109046080830185610779565b6109126101808301846108ad565b979650505050505050565b5f82825260208201905092915050565b7f5a65726f457870616e73696f6e000000000000000000000000000000000000005f82015250565b5f610961600d8361091d565b915061096c8261092d565b602082019050919050565b5f60608201905061098a5f8301856108ad565b61099760208301846108ad565b81810360408301526109a881610955565b9050939250505056fea2646970667358221220186f500d94f5da706f82948d7582db7fa2aab52fd290e6af70af92e63954ed0764736f6c63430008210033","linkReferences":{}},"methodIdentifiers":{"WORLD_ID_GROUP()":"5aad5b35","getTheoreticalLimits()":"c2661118","groth16Verifier()":"19c813be","groupDepth(uint256)":"5924f056","latestRoot(uint256)":"0b4a5944","rootHistory(uint256,uint256)":"38953305","updateRoot(uint256,uint256)":"2e8a2d3f","validator()":"3a5381b5","verifier()":"2b7ac3f3","verifyWorldIDProof(uint256,uint256,uint256,uint256,uint256,uint256[8])":"fc376d76"},"id":19}