{"abi":[{"type":"constructor","inputs":[{"name":"_validator","type":"address","internalType":"address"},{"name":"_groth16Verifier","type":"address","internalType":"address"}],"stateMutability":"nonpayable"},{"type":"function","name":"groth16Verifier","inputs":[],"outputs":[{"name":"","type":"address","internalType":"contract IGroth16Verifier"}],"stateMutability":"view"},{"type":"function","name":"nullifierUsed","inputs":[{"name":"","type":"uint256","internalType":"uint256"}],"outputs":[{"name":"","type":"bool","internalType":"bool"}],"stateMutability":"view"},{"type":"function","name":"validator","inputs":[],"outputs":[{"name":"","type":"address","internalType":"contract SemaphoreTreeDepthValidator"}],"stateMutability":"view"},{"type":"function","name":"verifyAndConsumeNullifier","inputs":[{"name":"merkleTreeRoot","type":"uint256","internalType":"uint256"},{"name":"nullifierHash","type":"uint256","internalType":"uint256"},{"name":"signalHash","type":"uint256","internalType":"uint256"},{"name":"externalNullifier","type":"uint256","internalType":"uint256"},{"name":"proof","type":"uint256[8]","internalType":"uint256[8]"},{"name":"merkleTreeDepth","type":"uint256","internalType":"uint256"}],"outputs":[{"name":"","type":"bool","internalType":"bool"}],"stateMutability":"nonpayable"},{"type":"function","name":"verifyProof","inputs":[{"name":"merkleTreeRoot","type":"uint256","internalType":"uint256"},{"name":"nullifierHash","type":"uint256","internalType":"uint256"},{"name":"signalHash","type":"uint256","internalType":"uint256"},{"name":"externalNullifier","type":"uint256","internalType":"uint256"},{"name":"proof","type":"uint256[8]","internalType":"uint256[8]"},{"name":"merkleTreeDepth","type":"uint256","internalType":"uint256"}],"outputs":[{"name":"","type":"bool","internalType":"bool"}],"stateMutability":"view"},{"type":"event","name":"ProofVerified","inputs":[{"name":"merkleTreeRoot","type":"uint256","indexed":true,"internalType":"uint256"},{"name":"nullifierHash","type":"uint256","indexed":true,"internalType":"uint256"},{"name":"signalHash","type":"uint256","indexed":false,"internalType":"uint256"},{"name":"merkleTreeDepth","type":"uint256","indexed":false,"internalType":"uint256"},{"name":"proverType","type":"string","indexed":false,"internalType":"string"}],"anonymous":false},{"type":"error","name":"InvalidProofStructure","inputs":[]},{"type":"error","name":"NullifierAlreadyUsed","inputs":[]},{"type":"error","name":"ProofVerificationFailed","inputs":[]}],"bytecode":{"object":"0x60c060405234801561000f575f5ffd5b50604051610b52380380610b52833981810160405281019061003191906100fe565b8173ffffffffffffffffffffffffffffffffffffffff1660808173ffffffffffffffffffffffffffffffffffffffff16815250508073ffffffffffffffffffffffffffffffffffffffff1660a08173ffffffffffffffffffffffffffffffffffffffff1681525050505061013c565b5f5ffd5b5f73ffffffffffffffffffffffffffffffffffffffff82169050919050565b5f6100cd826100a4565b9050919050565b6100dd816100c3565b81146100e7575f5ffd5b50565b5f815190506100f8816100d4565b92915050565b5f5f60408385031215610114576101136100a0565b5b5f610121858286016100ea565b9250506020610132858286016100ea565b9150509250929050565b60805160a0516109e761016b5f395f818161012701526102d101525f818161014b015261018c01526109e75ff3fe608060405234801561000f575f5ffd5b5060043610610055575f3560e01c806319c813be146100595780633a5381b51461007757806379f95ee9146100955780639aca8f2a146100c5578063d52d6f90146100f5575b5f5ffd5b610061610125565b60405161006e9190610578565b60405180910390f35b61007f610149565b60405161008c91906105b1565b60405180910390f35b6100af60048036038101906100aa9190610601565b61016d565b6040516100bc9190610646565b60405180910390f35b6100df60048036038101906100da9190610684565b610189565b6040516100ec9190610646565b60405180910390f35b61010f600480360381019061010a9190610684565b61037b565b60405161011c9190610646565b60405180910390f35b7f000000000000000000000000000000000000000000000000000000000000000081565b7f000000000000000000000000000000000000000000000000000000000000000081565b5f602052805f5260405f205f915054906101000a900460ff1681565b5f7f000000000000000000000000000000000000000000000000000000000000000073ffffffffffffffffffffffffffffffffffffffff1663c0880b45836040518263ffffffff1660e01b81526004016101e3919061072a565b5f6040518083038186803b1580156101f9575f5ffd5b505afa15801561020b573d5f5f3e3d5ffd5b505050505f835f6008811061022357610222610743565b5b602002013514801561024c57505f8360016008811061024557610244610743565b5b6020020135145b15610259575f9050610371565b5f8360066008811061026e5761026d610743565b5b602002013514801561029757505f836007600881106102905761028f610743565b5b6020020135145b156102a4575f9050610371565b5f6040518060a001604052808981526020018881526020018781526020018681526020018481525090505f7f000000000000000000000000000000000000000000000000000000000000000073ffffffffffffffffffffffffffffffffffffffff16632a07d99a86846040518363ffffffff1660e01b815260040161032a92919061082f565b602060405180830381865afa158015610345573d5f5f3e3d5ffd5b505050506040513d601f19601f820116820180604052508101906103699190610882565b905080925050505b9695505050505050565b5f5f5f8781526020019081526020015f205f9054906101000a900460ff16156103d0576040517fcad2ae0200000000000000000000000000000000000000000000000000000000815260040160405180910390fd5b5f3073ffffffffffffffffffffffffffffffffffffffff16639aca8f2a8989898989896040518763ffffffff1660e01b8152600401610414969594939291906108bc565b602060405180830381865afa15801561042f573d5f5f3e3d5ffd5b505050506040513d601f19601f820116820180604052508101906104539190610882565b90508061048c576040517fd611c31800000000000000000000000000000000000000000000000000000000815260040160405180910390fd5b60015f5f8981526020019081526020015f205f6101000a81548160ff02191690831515021790555086887f2e50865678927b52a4ded4c814a9650b63c0e7204ba5892bca3e5c462a2ddc6688866040516104e7929190610977565b60405180910390a360019150509695505050505050565b5f73ffffffffffffffffffffffffffffffffffffffff82169050919050565b5f819050919050565b5f61054061053b610536846104fe565b61051d565b6104fe565b9050919050565b5f61055182610526565b9050919050565b5f61056282610547565b9050919050565b61057281610558565b82525050565b5f60208201905061058b5f830184610569565b92915050565b5f61059b82610547565b9050919050565b6105ab81610591565b82525050565b5f6020820190506105c45f8301846105a2565b92915050565b5f5ffd5b5f819050919050565b6105e0816105ce565b81146105ea575f5ffd5b50565b5f813590506105fb816105d7565b92915050565b5f60208284031215610616576106156105ca565b5b5f610623848285016105ed565b91505092915050565b5f8115159050919050565b6106408161062c565b82525050565b5f6020820190506106595f830184610637565b92915050565b5f5ffd5b5f8190508260206008028201111561067e5761067d61065f565b5b92915050565b5f5f5f5f5f5f6101a0878903121561069f5761069e6105ca565b5b5f6106ac89828a016105ed565b96505060206106bd89828a016105ed565b95505060406106ce89828a016105ed565b94505060606106df89828a016105ed565b93505060806106f089828a01610663565b92505061018061070289828a016105ed565b9150509295509295509295565b5f60ff82169050919050565b6107248161070f565b82525050565b5f60208201905061073d5f83018461071b565b92915050565b7f4e487b71000000000000000000000000000000000000000000000000000000005f52603260045260245ffd5b82818337505050565b6107866101008383610770565b5050565b5f60059050919050565b5f81905092915050565b5f819050919050565b6107b0816105ce565b82525050565b5f6107c183836107a7565b60208301905092915050565b5f602082019050919050565b6107e28161078a565b6107ec8184610794565b92506107f78261079e565b805f5b8381101561082757815161080e87826107b6565b9650610819836107cd565b9250506001810190506107fa565b505050505050565b5f6101a0820190506108435f830185610779565b6108516101008301846107d9565b9392505050565b6108618161062c565b811461086b575f5ffd5b50565b5f8151905061087c81610858565b92915050565b5f60208284031215610897576108966105ca565b5b5f6108a48482850161086e565b91505092915050565b6108b6816105ce565b82525050565b5f6101a0820190506108d05f8301896108ad565b6108dd60208301886108ad565b6108ea60408301876108ad565b6108f760608301866108ad565b6109046080830185610779565b6109126101808301846108ad565b979650505050505050565b5f82825260208201905092915050565b7f5a65726f457870616e73696f6e000000000000000000000000000000000000005f82015250565b5f610961600d8361091d565b915061096c8261092d565b602082019050919050565b5f60608201905061098a5f8301856108ad565b61099760208301846108ad565b81810360408301526109a881610955565b9050939250505056fea2646970667358221220186f500d94f5da706f82948d7582db7fa2aab52fd290e6af70af92e63954ed0764736f6c63430008210033","linkReferences":{}},"methodIdentifiers":{"groth16Verifier()":"19c813be","nullifierUsed(uint256)":"79f95ee9","validator()":"3a5381b5","verifyAndConsumeNullifier(uint256,uint256,uint256,uint256,uint256[8],uint256)":"d52d6f90","verifyProof(uint256,uint256,uint256,uint256,uint256[8],uint256)":"9aca8f2a"},"id":19}